:100000000C9453000C9480000C9480000C9480009D
:100010000C9480000C9480000C9480000C94800060
:100020000C9480000C9480000C9403010C948000CC
:100030000C9480000C9480000C94DC010C948000E3
:100040000C9480000C9480000C94931B0C94800002
:100050000C944D1A0C9480000C9480000C94800039
:100060000C9480000C9480000C9480000C94800010
:100070000C9480000C9480000C94261B0C9480003F
:100080000C9480000C9480000C948000BF007305D9
:100090008B09450A5E0A430E7D125214CC16E316F4
:1000A000DF17B3181D1B11241FBECFEFD0E1DEBF39
:1000B000CDBFB89AC09885B7806885BF12E0A0E030
:1000C000B1E0EEE7FBE302C005900D92A633B10765
:1000D000D9F71DE5A0E0B0E201C01D92AD39B1072E
:1000E000E1F710E0C6EAD0E004C02297FE010E94CA
:1000F000A71DCC38D107C9F70E942D020C94BD1D55
:100100000C9400000895DC0180910401882341F0E3
:10011000E0911020F0E0E050F04E11968C91808339
:100120000895089588E10FB6F89481BD11BC0FBE03
:100130008FEF84BB15BA21E025BF80E885BF8C9A7C
:10014000949A89E080938A0081E880938B0080EA0A
:1001500090E0909387008093860082B1806382B99B
:1001600082E083BF2FBD8EB589608EBD87B7846066
:1001700087BF8BE485BD87B7806487BF089583E11F
:1001800090E46BE478E443E150E220E030E20E9446
:10019000B20685E993E464EF74E545E951E420E0B3
:1001A00032E00E94B2060895CF93DF938091194503
:1001B000882331F581E080931945789482E198E4B1
:1001C0000E94EE16EC018091174590911845C817D2
:1001D000D907A1F081E298E40E94B91781E298E47E
:1001E0006D2F0E94CC1783E198E4BE010E94131783
:1001F000D0931845C09317450E94730E109219456D
:10020000DF91CF9108951F920F920FB60F92112494
:100210002F933F934F935F936F937F938F939F930E
:10022000AF93BF93EF93FF938091995D90919A5D07
:10023000019690939A5D8093995D2091995D30919C
:100240009A5D8091112090911220281B390B37FF65
:1002500003C0309521953F4F295B3B4054F01092ED
:100260004D488091995D90919A5D90931220809372
:10027000112080915448909155482FEF8F3F92075D
:1002800029F00196909355488093544880915648A0
:100290008823D9F08091504890915148009781F47B
:1002A000E0914B48F0914C480480F581E02D8BE4BF
:1002B00098E46EEF0995809152489091534801C09F
:1002C000019790935148809350488091FD549091AC
:1002D000FE542FEF8F3F920729F001969093FE5422
:1002E0008093FD548091FF548823D9F08091F95474
:1002F0009091FA54009781F4E091F454F091F55400
:100300000480F581E02D84EF94E56EEF09958091EE
:10031000FB549091FC5401C001979093FA54809340
:10032000F9540E94D400FF91EF91BF91AF919F913A
:100330008F917F916F915F914F913F912F910F908E
:100340000FBE0F901F90189509C08BE498E40E948F
:10035000261A682F83E190E40E94ED068BE498E46E
:100360000E94151A882389F709C084EF94E50E943A
:10037000F61A682F85E993E40E94ED0684EF94E570
:100380000E94E51A882389F708951F93182F8091FA
:100390004D4590914E450297029720F48AE195E4ED
:1003A0000E946C030E94A401112321F089EB96E4C2
:1003B0000E94E3101F9108951F920F920FB60F92A3
:1003C00011242F933F934F935F936F937F938F935A
:1003D0009F93AF93BF93EF93FF9380919B5D909119
:1003E0009C5D019690939C5D80939B5D80914B45B5
:1003F00090914C45029721F48AE195E40E9478059A
:10040000FF91EF91BF91AF919F918F917F916F91EC
:100410005F914F913F912F910F900FBE0F901F90C2
:100420001895F89484E090E060E070E00E94AB1DC5
:1004300029E088E190E00FB6F894A89581BD0FBE41
:1004400021BDFFCF82E090E090934E4580934D45D3
:100450008AE195E40E940F0308950F931F9388EE9D
:1004600093E020E931E0F9013197F1F70197D9F7ED
:100470000E9492001C9A1D9A82E198E40E94EE1656
:100480008C0181E298E40E94B91781E298E4612F1F
:100490000E94CC1783E198E4B8010E9413170093DF
:1004A000174510931845A8E8B1E4E0E0F0E08D911D
:1004B0009C911197009719F0845E954479F4EE0FA2
:1004C000FF1FE857FE4B84EE95E49183808386E717
:1004D00091E49093EA458093E94505C031961296E0
:1004E000E430F10521F7889A0E9422020E94581CEC
:1004F0000E94B21C0E94731C789481E00E94C50186
:10050000FCCFFC0112AA11AA80E197E291A380A37B
:1005100015A214A284A195A197A386A31482158283
:100520001682178210821182128213828081918139
:10053000A281B38180879187A287B387148A158AA5
:10054000168A178A84899589A689B78984879587A9
:10055000A687B787108E118E128E138E808D918D87
:10056000A28DB38D808B918BA28BB38B158E858DD5
:10057000848F88EC90E094A783A710AA0895CF9366
:10058000DF93EC018FA5882359F0E0914B48F0915F
:100590004C480480F581E02D8BE498E46AEF0995DE
:1005A000CE010E94810281E090E09AAB89ABDF919D
:1005B000CF910895FC0112AA11AA87A5882359F0AA
:1005C000E0914B48F0914C480480F581E02D8BE49C
:1005D00098E46CEF09950895CF93DF93EC018FA514
:1005E000882359F0E0914B48F0914C480480F58104
:1005F000E02D8BE498E46BEF099581E090E09AABF5
:1006000089AB80E197E299A388A31DA21CA28CA1CB
:100610009DA19FA38EA318AADF91CF910895CF9398
:10062000DF93EC018BA99CA90197A9F4CE010E944C
:10063000810282E090E09AAB89AB8FA5882359F0C4
:10064000E0914B48F0914C480480F581E02D8BE41B
:1006500098E46AEF0995DF91CF910895FF920F9387
:100660001F938C01FFB6F894FC0176A765A79B0148
:1006700040E050E06AE572E682E090E00E94831D6F
:1006800020513040F801378F268FFFBE1F910F9108
:10069000FF9008950F931F938C010B591F4FF80182
:1006A00010820F5C1F4FF80110820F5C1F4FF80182
:1006B0001082075C1040C8010E948102F80114AA50
:1006C00013AAC80168E770E00E942E03F80117A67C
:1006D00011A61F910F9108958F929F92AF92BF9292
:1006E000CF92DF92EF92FF920F931F93CF93DF93FE
:1006F000EC0189A5882309F056C089A99AA9029717
:1007000009F051C08FB7F8948E8C9F8C2EA13FA119
:100710006CA17DA18FBF2617370728F0C901861B62
:10072000970BBC0104C060957095620F731F603811
:10073000710510F460E870E088A9882319F481E05D
:1007400088AB20C0ABA4BCA480E090E020E031E006
:100750002A193B0940E050E00E94501D7B018C01AA
:10076000CC24DD24940140E050E0C601B5010E9494
:10077000501DE60EF71E081F191FEF2CF02E012F3B
:100780001127B70190E56030790718F06FEF7FE42B
:1007900005C06038710510F460E870E08FB7F89418
:1007A0007F8F6E8F8FBFDF91CF911F910F91FF9041
:1007B000EF90DF90CF90BF90AF909F908F90089573
:1007C000FC0181A992A90197C9F583A994A9019770
:1007D00019F081A5882391F182E090E092AB81AB82
:1007E000089580859185A285B3850196A11DB11DCF
:1007F00080879187A287B387848D8F5F848F848D54
:10080000863069F4148E80899189A289B389019612
:10081000A11DB11D808B918BA28BB38B03C0848DE6
:10082000833081F484859585A685B7850196A11DC1
:10083000B11D84879587A687B787089581A992A956
:10084000029779F20895CF92DF92EF92FF921F9371
:10085000CF93DF93EC016A017B0110E043C0412F8D
:1008600050E0CA01880F991F840F951FFC01EE0FFD
:10087000FF1FEC0FFD1F24813581DC01119620FF45
:1008800016C0C901959587950190F081E02DE80F7C
:10089000F91FAA0FBB1FAC0FBD1F0190F081E02D07
:1008A0008D919C91E80FF91FA081B18107C0AA0F1B
:1008B000BB1FAC0FBD1F0D90BC91A02DFA01EE0F18
:1008C000FF1FE40FF51FEE0FFF1FEC0FFD1F359507
:1008D000279580819181820F931FB701A601FD01A9
:1008E00009951F5F88A9181708F4B9CFDF91CF9138
:1008F0001F91FF90EF90DF90CF900895CF93DF93FB
:10090000EC0189A99AA90297D1F588899989AA89C0
:10091000BB8983709070A070B0700097A105B1057D
:1009200011F41C9801C01C9A8091E345882339F585
:1009300081E08093E34578948C8D882391F44889F5
:1009400059896A897B89CE0189569F4F0E94230469
:100950004C855D856E857F85CE018A599F4F0E94AB
:1009600023048C8D833049F44C855D856E857F85AD
:10097000CE018A599F4F0E9423041092E345DF91D4
:10098000CF910895CF92DF92EF92FF921F93DF9362
:10099000CF9300D00F92CDB7DEB77C016B01FC0185
:1009A00087A5882319F1DE011196E5E0F1E083E0E7
:1009B00001900D928150E1F78C2D8F778A83C601CB
:1009C000880F892F881F990B91958F778B83E091E2
:1009D0004B48F0914C480280F381E02D8BE498E481
:1009E000BE016F5F7F4F43E050E009951FB7F89459
:1009F0009601220F331FC9018C0D9D1D880F991F71
:100A0000A0E0B0E0F70180839183A283B38380816B
:100A10009181A281B38180879187A287B3878085E6
:100A20009185A285B38584839583A683B78340E0AF
:100A300050E0248B358B468B578B84899589A6890A
:100A4000B78984879587A687B787C601A0E0B0E0FD
:100A5000808F918FA28FB38F808D918DA28DB38D5A
:100A6000808B918BA28BB38B40895189628973896A
:100A7000C70189569F4F0E942304F701448555857D
:100A800066857785C7018A599F4F0E942304F70125
:100A9000158E858D848F1FBF0F900F900F90CF9173
:100AA000DF911F91FF90EF90DF90CF900895DC01D0
:100AB000FB01D3968D919C91D4970297029790F465
:100AC000628170E06F7770707695762F66277795E4
:100AD0006795818190E08F779070682B792BCD019D
:100AE0000E94C20408958AE195E40E944A03089591
:100AF000EF92FF920F931F93CF93DF93EC0189A5A1
:100B0000882309F087C088A199A1892B09F07DC0AD
:100B10008E8D9F8D99A388A378948091E245882338
:100B200009F078C081E08093E245CE010E94E003A5
:100B300089A99AA9029709F06DC08FA5882319F198
:100B4000288539854A855B858C819D81AE81BF81F1
:100B50007901E81AF90A00E010E012C08BE498E489
:100B600068EF0E94A3198C819D81AE81BF8101969F
:100B7000A11DB11D8C839D83AE83BF830F5F1F4F6B
:100B80000E151F055CF38BA99CA902970297B8F577
:100B9000288539854A855B8588819981AA81BB81B1
:100BA000281739074A075B0780F0288539854A8569
:100BB0005B8588819981AA81BB810196A11DB11DA8
:100BC00082179307A407B507D0F488819981AA8179
:100BD000BB8188879987AA87BB878C899D89AE89C5
:100BE000BF898C879D87AE87BF87888D998DAA8D99
:100BF000BB8D888B998BAA8BBB8B8D8D8C8FCE01F7
:100C00000E947E041092E24505C088A199A1019737
:100C100099A388A3DF91CF911F910F91FF90EF903F
:100C20000895CF93DF93EC018C8D8FA5882329F055
:100C30008BE498E468EF0E94A319CE010E94E003C0
:100C4000CE010E947E04DF91CF910895FC0181A521
:100C5000882321F0CF010E941106089580A191A15F
:100C600093A382A320919B5D30919C5D86A197A167
:100C700095A384A337A326A381A992A9019739F448
:100C800011A210A282E090E092AB81AB2CC08081D7
:100C90009181A281B3810196A11DB11D80839183B1
:100CA000A283B383858D8F5F858F858D863069F4B0
:100CB000158E808D918DA28DB38D0196A11DB11DD4
:100CC000808F918FA28FB38F03C0858D833059F4AD
:100CD00084899589A689B7890196A11DB11D848B48
:100CE000958BA68BB78B83A994A902970297C8F519
:100CF000208531854285538580819181A281B38190
:100D0000281739074A075B07A0F481E082A722A1D0
:100D100033A1369527953695279580A191A128175F
:100D20003907F8F480A191A1821B930B91A380A3B2
:100D3000089512A6268D378D82A193A1821793075D
:100D400080F4868D978D22A133A140A151A1821BF1
:100D5000930B9695879596958795840F951F91A3EC
:100D600080A308951F93FC01DC01DB9680E090E0F6
:100D70001C92C196D19611E087359107C9F7E359C6
:100D8000FE4F518340833497318320833A961182FA
:100D900010827097119210823B96119211921182DB
:100DA0001082399710827696419351933183208334
:100DB0007E9781E08083E256F14071876087E35837
:100DC000FE4F8FEF8083ED57F1401382128284E053
:100DD00090E0918380831F910895AF92BF92DF923C
:100DE000EF92FF920F931F93CF93DF93EC01162F97
:100DF000683F40F06E3F09F021C1E885F985128611
:100E000011861CC183E6E82E81E0F82EEC0EFD1E53
:100E100002E6A02E01E0B02EAC0EBD1E01E0F501F1
:100E20008081882309F40AC18881998182309105E3
:100E300009F466C08330910534F4009711F10197ED
:100E400009F0FCC0F0C08330910541F0049709F02F
:100E5000F5C017FFF3C019821882E1CF17FF0CC04D
:100E6000173F31F019821882C7010E944108D7CF7D
:100E7000C7010E94C708E2C0C701612F0E9409098B
:100E8000DDC0103F51F483E090E099838883C7016F
:100E90000E942C081B821A82D1C017FF03C01A833C
:100EA0001B8205C08A81882309F4C8C00B832A816C
:100EB000203F08F4207F30E00BC0821741F481818D
:100EC0009281998388838A818D830C830EC03F5FD2
:100ED000832F90E0FC01EE0FFF1FE80FF91FE85F82
:100EE000FE4F8081882349F720E03A87222319F4B6
:100EF00084E090E0A1C08B81882309F090CF9EC050
:100F00008C81FE01E80FF11D15838F5F8C838A852C
:100F100090E0FC01EE0FFF1FE80FF91FE85FFE4FA6
:100F20008081803921F48F81882309F41A862A85EB
:100F3000273008F06BC030E0F5E0AF2EB12CAC0EDE
:100F4000BD1EDD2481E390E0289F8001299F100DC4
:100F5000389F100D11247E01E00EF11E8BE390E00E
:100F6000E80EF91E4DC04D2D50E0CA01880F991FA3
:100F7000840F951FFC01EE0FFF1FE00FF11FEC0F18
:100F8000FD1F27853089DC01119620FF1AC0C90199
:100F9000959587950384F485E02DE80FF91FAA0F36
:100FA000BB1FA00FB11FAC0FBD1F0190F081E02D42
:100FB0001B968D919C911C97E80FF91FA081B18120
:100FC0000AC0AA0FBB1FA00FB11FAC0FBD1F1B96FD
:100FD0000D90BC91A02DFA01EE0FFF1FE40FF51F3D
:100FE000EE0FFF1FE00FF11FEC0FFD1F359527954A
:100FF00083859485820F931FB501FD010995D394D4
:10100000F7018081D81608F4AECF0AC08A81823FEA
:1010100039F4BE016B5F7F4F8AE195E40E9457056A
:10102000198218820BC08C81FE01E80FF11D158317
:101030008F5F8C8382E090E099838883DF91CF91EA
:101040001F910F91FF90EF90DF90BF90AF900895A8
:101050000895089508950895FC01118A108A108258
:1010600015821282138214828285938595878487E4
:1010700086819781978786871186108681E0818394
:101080000895EF92FF920F931F93CF93DF93EC019C
:1010900081E088838E0188E0E82EF12CEC0EFD1EA5
:1010A000F801A289B3891097D1F012969C911297FA
:1010B0009F3FD9F08D812A81882379F0291779F40F
:1010C0009B8113968C911397981749F49C811496E1
:1010D0008C911497981719F408C0291731F00E5FF6
:1010E0001F4F0E151F05E1F609C0ED91FC911197F8
:1010F0000280F381E02DCD010995F1CFDF91CF91F1
:101100001F910F91FF90EF900895EF92FF920F9330
:101110001F93CF93DF93EC018C0198E0E92EF12C23
:10112000EC0EFD1EF801A289B3891097D1F012963A
:101130009C9112979F3FD9F08D812A81882379F065
:10114000291779F49B8113968C911397981749F47A
:101150009C8114968C911497981719F408C029173C
:1011600031F00E5F1F4F0E151F05E1F609C0ED911E
:10117000FC9111970190F081E02DCD010995F1CFFF
:10118000DF91CF911F910F91FF90EF900895EF9213
:10119000FF920F931F93CF93DF93EC018C0128E014
:1011A000E22EF12CE80EF91EF801A289B3891097FE
:1011B000D1F012969C9112979F3FD9F08D812A8190
:1011C000882379F0291779F49B8113968C911397D2
:1011D000981749F49C8114968C911497981719F4D8
:1011E00008C0291731F00E5F1F4F0E151F05E1F6DD
:1011F00009C0ED91FC9111970480F581E02DCD019E
:101200000995F1CFDF91CF911F910F91FF90EF9052
:101210000895CF92DF92FF920F931F93CF93DF93A6
:10122000EC01F62E8881882309F06DC088899989A0
:10123000892B51F46A83662319F481E08D8304C0FD
:101240001D82CE010E9485088D81882369F08889DE
:1012500099898130910511F4FB8206C0029721F42F
:10126000FC82CE010E9485088E0138E0C32ED12C6D
:10127000CC0EDD1EF801A289B3891097D1F0129629
:101280009C9112979F3FA9F18D812A81882379F043
:10129000291779F49B8113968C911397981749F429
:1012A0009C8114968C911497981719F422C02917D1
:1012B00001F10E5F1F4F0C151D05E1F68889998914
:1012C0000196998B888B89818823E9F02885398557
:1012D0008E859F8528173907B0F4EC85FD853097FA
:1012E00091F0E20FF31FF0822F5F3F4F398728877D
:1012F0000AC0ED91FC9111970680F781E02DCD0198
:101300006F2D0995D6CFDF91CF911F910F91FF904F
:10131000DF90CF9008951092EA451092E94580E35E
:1013200091E09093E5458093E4451092E64583E192
:101330008093E74581E48093E8450895DC011596A4
:10134000ED91FC91169780899189039721F465307E
:1013500011F40E94110208951F93CF93DF93EC01C3
:10136000162F603F50F0E881F981683F10F41A822F
:1013700015C00680F781E02D14C08C81882361F0B0
:101380008A81861739F0E881F9810480F581E02DA2
:10139000CE0109951A8308C0E881F9810480F5819E
:1013A000E02DCE01612F0995DF91CF911F91089516
:1013B000FC0117820895FC0180918641909187413C
:1013C000039731F4662319F481E087830895178227
:1013D0000895FC018781882309F456C0A0918041BB
:1013E000B091814115968C9115978331A9F1843183
:1013F00020F4813109F048C006C08531A1F1873160
:1014000009F042C039C085859685019709F03CC036
:1014100017968C91179790E09695982F8827979517
:10142000879516962C91169730E0822B932B9287F6
:10143000818719968C91199790E09695982F882717
:101440009795879518962C9130E0822B932B948753
:10145000838782E090E00DC0858596850397A1F48F
:1014600084E090E006C085859685059769F486E05E
:1014700090E096878587089585859685079721F45E
:1014800088E090E09687858708951092F145109244
:10149000F0458CE391E09093EC458093EB451092FE
:1014A000ED4580E28093EE458CE38093EF4510920A
:1014B000F3451092F9451092F84508951092FB45B6
:1014C0008091FB458093FA4580E490E090938B46B1
:1014D00080938A46EAE0F6E41192119286E4EA38B3
:1014E000F807D1F71092094610920846138212822B
:1014F0000895FF920F931F93FB01F1800BE418E412
:10150000C80160810E94AC09E0914B48F0914C48C1
:101510000480F581E02DC8016F2D09951F910F9171
:10152000FF900895EF92FF920F931F93FB01F180BC
:10153000E2800BE418E4C80160810E94AC09E091EC
:101540004B48F0914C480480F581E02DC8016F2D87
:101550000995E0914B48F0914C480480F581E02DCD
:10156000C8016E2D09951F910F91FF90EF9008957E
:101570000F931F93CF93DF93EC018B01B9019A0175
:1015800058A9583010F080E048C0FC0140E0D90173
:10159000A170B07018C0808191818017910789F483
:1015A000828193818617970761F4848195818217E0
:1015B000930791F16115710521F4109711F480FFE3
:1015C0002BC04F5F3696451730F3852F90E0FC0116
:1015D000EE0FFF1FE80FF91FEE0FFF1FEC0FFD1FAF
:1015E0001183008388A990E0FC01EE0FFF1FE80F34
:1015F000F91FDF01AA0FBB1FAC0FBD1F15963C934F
:101600002E9314973196EE0FFF1FEC0FFD1F718381
:10161000608388A98F5F88AB81E0DF91CF911F91B4
:101620000F910895DF92EF92FF920F931F93CF9344
:10163000DF93EC017B01B9019A01DFB6F89408A9A8
:10164000FC01A0E0B0E04170507041C08081918108
:101650008E159F05D1F58281938186179707A9F58D
:10166000848195818217930741F06115710569F5B1
:101670004115510551F580FD28C0812F90E09C0156
:10168000220F331F280F391F220F331F0196BC0171
:10169000660F771F680F791F660F771F6C0F7D1F0E
:1016A000802F90E08A1B9B0B0197AC01440F551FC4
:1016B000480F591F440F551FCE01820F931F0E94E0
:1016C000031D88A9815088AB06C0119636961A2F43
:1016D000A01708F4BBCFDFBEDF91CF911F910F9110
:1016E000FF90EF90DF900895EF92FF920F931F937A
:1016F000CF93DF93EC01688360FF0CC020E030E003
:1017000040E050E022E93AE083E394E4BE010E9425
:10171000B80A0BC020E030E040E050E022E93AE0B7
:1017200083E394E4BE010E94120B888181FF19C0FB
:10173000EE24FF248701F2E9EF2EFAE0FF2E81ED7F
:1017400093E4BE01A80197010E94B80A20E030E0AE
:1017500040E050E0970180EA93E4BE010E94B80A9D
:1017600018C0EE24FF248701E2E9EE2EEAE0FE2E07
:1017700081ED93E4BE01A80197010E94120B20E0C5
:1017800030E040E050E0970180EA93E4BE010E941F
:10179000120B888183FF0CC020E030E040E050E075
:1017A00022E93AE082E094E4BE010E94B80A0BC04C
:1017B00020E030E040E050E022E93AE082E094E4CA
:1017C000BE010E94120B888184FF0CC020E030E033
:1017D00040E050E029E73AE084E694E4BE010E944C
:1017E000B80A0BC020E030E040E050E029E73AE0E2
:1017F00084E694E4BE010E94120B888185FF0CC030
:1018000020E030E040E050E029E73AE085E994E468
:10181000BE010E94B80A0BC020E030E040E050E07A
:1018200029E73AE085E994E4BE010E94120B888121
:1018300086FF0CC020E030E040E050E022E93AE0D2
:1018400086EC94E4BE010E94B80A0BC020E030E0B0
:1018500040E050E022E93AE086EC94E4BE010E94C8
:10186000120BDE018D9182FF20C02AE035E440E0BA
:1018700050E0F90180819181009719F08A179B0748
:1018800061F4440F551F465F5A4BFA01B183A083A0
:1018900088EF94E49F838E8334C04F5F5F4F2E5F49
:1018A0003F4F4430510529F72CC080910A45909153
:1018B0000B458A179B0721F410920B4510920A459D
:1018C00080910C4590910D458A179B0721F4109249
:1018D0000D4510920C4580910E4590910F458A1749
:1018E0009B0721F410920F4510920E4580911045F0
:1018F000909111458A179B0721F41092114510927F
:101900001045DF91CF911F910F91FF90EF900895B7
:101910000F931F93CF93DF938BE498E460EF0E94C3
:10192000AC090091024510910345C0910045D0914A
:1019300001450EC0F80161918F01E0914B48F09193
:101940004C480480F581E02D8BE498E409952197BB
:10195000209781F78BE498E467EF0E94A719DF9145
:10196000CF911F910F9108959C012A5F3F4FC901AC
:101970000895FC01848195810895FC018281938101
:101980000895CF93DF93EC012C813D818A819B8167
:101990002817390731F0ED85FE85309711F0CE011B
:1019A00009958C819D819B838A83DF91CF910895D6
:1019B000CF93DF93EC01442349F07D836C83E8816E
:1019C000F9810680F781E02D099504C07D836C8341
:1019D0007B836A8381E08F87DF91CF910895FC013B
:1019E00040E022813381848195812817390709F0ED
:1019F00041E0842F0895FC01138212821582148223
:101A000008951F93FC01DB01448155811C9184855D
:101A1000882319F060E070E016C0828511962C9141
:101A2000882369F0332727FD3095838590E0289F30
:101A3000B001299F700D389F700D112404C0622FD2
:101A4000772767FD7095212F332727FD3095240FC9
:101A5000351F260F371F35832483C9011F91089531
:101A6000FC01A081B1811A962D913C911B97F9013F
:101A70000995882311F480E208958B3110F4805C7D
:101A800008958B5E0895DC01862F81548A3148F4D5
:101A9000ED91FC911197772767FD70956054704028
:101AA0000CC0862F8053ED91FC9111978A3050F431
:101AB000772767FD7095655170400684F785E02DA6
:101AC000CD0106C00684F785E02DCD0160E070E011
:101AD00040E009950895FF920F931F938C01F62E15
:101AE000DC01ED91FC910284F385E02D0995AC01B8
:101AF00089EB96E46F2D0E944B0FF80117861F911A
:101B00000F91FF900895CF93DF93EC01FB0140818B
:101B10008C85882319F060E070E015C08A852181EA
:101B2000882369F0332727FD30958B8590E0289F27
:101B3000B001299F700D389F700D112404C0622FD1
:101B4000772767FD7095842F992787FD9095680FFB
:101B5000791F488959892A893B898C819D810E94F6
:101B6000441D8C839D83DF91CF910895CF93DF93A4
:101B7000EC016115710529F0069644E050E00E94E1
:101B80001D1D1986DF91CF910895FC018AE691E031
:101B900091838083138212821582148281E082876E
:101BA00085E083871486568745871786CF010E9474
:101BB000B60D08956F927F928F929F92AF92BF92CF
:101BC000CF92DF92EF92FF920F931F93CF93DF9309
:101BD000EC014B015A016901782E6D2EB901A70164
:101BE0000E94C50D84E591E099838883E0915601B8
:101BF000F0915701CE01B6010995FE86ED868A1453
:101C00009B042CF4998A888ABB8AAA8A04C0B98A60
:101C1000A88A9B8A8A8AE881F9810684F785E02D63
:101C2000872D962DB80140E00995DF91CF911F9146
:101C30000F91FF90EF90DF90CF90BF90AF909F906B
:101C40008F907F906F900895CF92DF92EF92FF92E6
:101C50000F931F936C0160E070E045E250E020E0DC
:101C600030E000E010E0EE24FF240E94DA0D80E86E
:101C700091E0F601918380831F910F91FF90EF9087
:101C8000DF90CF90089510928E4610928F4610925A
:101C9000A0460895CF93DF93EC018FB7F894298184
:101CA00098818FBF30E02F5F3F4F277030709217C1
:101CB00029F48A898F5F8A8B80E012C0898190E045
:101CC0000196880F991F8C0F9D1F42E050E00E94E3
:101CD000031D898190E0019687709070898381E06F
:101CE000DF91CF910895BF92CF92DF92EF92FF9252
:101CF0000F931F93DF93CF9300D0CDB7DEB701E2F0
:101D000018E4FF24BB24B3946E010894C11CD11CB9
:101D100032E0E32EFA82F801808181FF08C080FD65
:101D200006C0B9828EE896E4B6010E944A0EF80118
:101D3000808181FD08C080FF06C0E9828EE896E4BC
:101D4000B6010E944A0EF3940B5F1F4FF8E0FF1696
:101D500009F70F900F90CF91DF911F910F91FF9096
:101D6000EF90DF90CF90BF900895DC0157966C9371
:101D70005797662321F081E056968C935697ED9104
:101D8000FC9111970680F781E02DCD01099508950A
:101D9000089580E008950F931F93CF93DF93EC0194
:101DA0008B01E881F9810280F381E02D0995DC0146
:101DB000009759F0ED91FC910684F785E02DB8016C
:101DC0000995882311F081E008C0E881F981008439
:101DD000F185E02DCE01B8010995DF91CF911F91DA
:101DE0000F91089508950895089508950895FC01A8
:101DF000662321F0868991E08927868B089580E00B
:101E000090E00895FB01DA0110821C920895FC0114
:101E1000E359FF4FA081B181109719F420E030E021
:101E200009C0ED91FC9111970280F381E02DCD0165
:101E300009959C01C9010895FC019B0180E28383FF
:101E4000CB016AE070E00E946F1D805D8283C90152
:101E50006AE070E00E946F1D9B016115710511F42D
:101E600080E206C0CB016AE070E00E946F1D805DD9
:101E70008183C9016AE070E00E946F1DCB0161158A
:101E8000710511F480E205C06AE070E00E946F1DE8
:101E9000805D80830895FC01E05BFF4F8081E05509
:101EA000F04090E027E230E0DC01A29FC001A39F58
:101EB000900DB29F900D1124DF01A80FB91F21E0F2
:101EC00052962C93660F660F860F911D02968E0F09
:101ED0009F1FBA010E941C0F08951F93AC0120E0C0
:101EE00030E0DC01A05BBF4F67E270E010E28C9154
:101EF00090E0869FF001879FF00D969FF00D1124D2
:101F0000E40FF51FE20FF31F12832F5F3F4F2031C5
:101F1000310569F78C9190E027E230E0829FF00173
:101F2000839FF00D929FF00D1124E40FF51F81E0C7
:101F3000828B1F910895FC019B01908181819817EC
:101F400011F480E008956115710511F481E00895A0
:101F50008081882319F467E070E004C0808181509B
:101F6000682F70E08181680F711D677070E06F5F8E
:101F70007F4F660F771F6E0F7F1FC90142E050E051
:101F80000E94031D81E00895DF93CF9300D0CDB769
:101F9000DEB71A8219820296BE016F5F7F4F0E94E0
:101FA0009B0F89819A810F900F90CF91DF910895B7
:101FB000EF92FF920F931F938C01FA0170E090E56E
:101FC000E92EF12CE00EF11ED7018C9127E2829FC1
:101FD000C0011124860F971F029640E150E0461B76
:101FE000570B800F911FBF010E941D1DF7018081BB
:101FF00090E027E230E0829FF001839FF00D929FF6
:10200000F00D1124E00FF11F81E0828B1F910F91E1
:10201000FF90EF900895AB0160E00E94D80F089503
:10202000662319F0613031F403C00E94B4120895A0
:102030000E94BF1208957F928F929F92AF92BF929B
:10204000CF92DF92EF92FF920F931F93CF93DF9384
:102050007C018DE690E0E80EF91EF701A081B181C8
:1020600083E99FEFE80EF91E109791F0ED91FC9136
:1020700011970280F381E02DCD010995EC010097C5
:1020800039F0E881F9810480F581E02D09951F8AF6
:1020900087010E5E1F4FCC24DD2487E2882E912C11
:1020A000B0E2AB2E77247394BC2CF801828988238C
:1020B000B9F10E94371DBC01F801838994890E94FF
:1020C000401DF801258936892817390710F47082D8
:1020D000128AF8018189882319F1C89CE001C99C02
:1020E000D00DD89CD00D11246396CE0DDF1DFE01BE
:1020F00020E030E08081882309F4A0822F5F3F4FE9
:10210000319620313105B1F789E498E46B2D0E94B6
:10211000101089E498E4BE010E949612F801118A19
:10212000F8018081882331F18289882319F5C89CC0
:10213000E001C99CD00DD89CD00D11242296CE0D63
:10214000DF1DFE0120E030E08081882309F4A082B9
:102150002F5F3F4F319620313105B1F789E498E484
:102160006B2D0E94101089E498E4BE010E94961223
:10217000F80110820894C11CD11C095D1F4FF2E0C8
:10218000CF16D10409F090CFECECF6E480E2819315
:1021900096E4EC3DF907D9F781E085A7779680E2D0
:1021A000819397E4E330F907D9F7DF91CF911F913D
:1021B0000F91FF90EF90DF90CF90BF90AF909F90E6
:1021C0008F907F9008954F925F926F927F928F923F
:1021D0009F92AF92BF92CF92DF92EF92FF920F93B6
:1021E0001F93DF93CF9300D0CDB7DEB77C016BE5B3
:1021F000A62EB12CA80EB91ECC24DD245BE6652EDC
:10220000712C680E791E2EC0D5010D911C910115FF
:10221000110509F10E94371D4C01F8018481958157
:10222000B4010E94401DD80112962D913C91139744
:102230002817390720F016968C91882361F0D80171
:10224000ED91FC910190F081E02DC8010995F80114
:102250009582848216820894C11CD11C82E090E091
:10226000A80EB91ED3018D919C91C816D90664F2AF
:1022700043C02FB7F89490918E4680918F462FBF20
:102280009817A1F060918E4670E0660F771F605737
:10229000794BC50142E050E00E94031D80918E46BB
:1022A00090E001968770907080938E46620100E006
:1022B00010E00DC0D601ED91FC91309711F0C501F1
:1022C00009950F5F1F4FE2E0F0E0CE0EDF1ED30155
:1022D0008D919C91081719076CF3F401A081B181CD
:1022E0001097E9F0ED91FC9111970190F081E02DAC
:1022F000CD01B501099513C05E010894A11CB11C64
:1023000031E5432E512C4E0C5F1C29E5622E712CB9
:102310006E0C7F1C9DE6892E912C8E0C9F1C2FB776
:10232000F89490918E4680918F462FBF981709F0B0
:10233000A0CF8DE690E0E80EF91EF701A081B181F3
:1023400083E99FEFE80EF91E1097D1F0ED91FC9113
:1023500011970280F381E02DCD0109958C01009742
:1023600079F0DC01ED91FC910190F081E02D09956F
:10237000D801ED91FC910280F381E02DC80109950F
:10238000EDE6F0E0EE0EFF1EF701A081B18183E9DA
:102390009FEFE80EF91E109741F0ED91FC91119717
:1023A0000284F385E02DCD0109950E949100C701BB
:1023B0000E941B10ADE6B0E0EA0EFB1EF701A08103
:1023C000B181109789F0ED91FC9111970280F38112
:1023D000E02DCD010995DC01009731F0ED91FC91E4
:1023E0000680F781E02D09950F900F90CF91DF9136
:1023F0001F910F91FF90EF90DF90CF90BF90AF9023
:102400009F908F907F906F905F904F9008950F9363
:102410001F93CF93DF93EC018B01C359DF4FA8814A
:10242000B981CD56D040109741F0ED91FC911197B4
:102430000088F189E02DCD010995C359DF4F19833B
:102440000883CD56D0400115110541F0D801ED911A
:10245000FC910684F785E02DC8010995CE010E9404
:10246000070F892B29F0CE010E94070F0E94491601
:10247000DF91CF911F910F910895FC0186E991E0C2
:1024800091838083E75AFF4F84E090E091838083BB
:102490003897119211921192119211921192118208
:1024A0001082749688E090E091838083EB56F04030
:1024B000DF01A55ABF4F80E090E01D921D9201966A
:1024C00088309105D1F7E05BFF4F1082E055F04076
:1024D000DF0180E090E212969C93129799969C936C
:1024E00099978F5F11968031B1F7128A11AECF01A3
:1024F00061EA76E40E94071208951092A3461092B2
:10250000A4468CE991E09093A2468093A14680E096
:1025100091E09093B6468093B5461092B7461092DC
:10252000B84689EB96E40E943D120895EF92FF921F
:102530001F93CF93DF937C01EB0110E0688166234A
:1025400069F0103159F01F5FD701ED91FC910680C1
:10255000F781E02DC70109952196F0CFDF91CF914A
:102560001F91FF90EF900895FC01A081B181149616
:102570002D913C91159760E8F90109950895FC01AA
:10258000A081B18114962D913C91159760ECF901D1
:1025900009950895DC01ED91FC911197662329F0CE
:1025A0000480F581E02D6FE004C00480F581E02D0A
:1025B0006CE009950895DC01ED91FC916295660F40
:1025C000660F607C640F60680480F581E02D0995DA
:1025D0000895BF92CF92DF92EF92FF920F931F93D5
:1025E000DF93CF9300D00F92CDB7DEB78C01DC0123
:1025F00013969C91903108F06BC067FD69C047FD50
:1026000067C0FE01319683E0DF011D928A95E9F7EC
:10261000906B99836A834B83FF248EE9C82ED12C5B
:10262000C00ED11EBE2EEF2E43C04F2D50E0FA013A
:10263000EE0FFF1FE40FF51FEE0FFF1FE00FF11F5E
:10264000EE58FF4F20813181E257F040DF01A05961
:10265000BF4F20FF14C0E259FF4FC90195958795E0
:102660000190F081E02DE80FF91F0190F081E02D3D
:102670008D919C91E80FF91FA081B18103C00D904D
:10268000BC91A02DFA01EE0FFF1FE40FF51FEE0F16
:10269000FF1FE00FF11FE259FF4F3595279580810D
:1026A0009181820F931F6B2D7E2DFD010995F3946F
:1026B000F6018081F81608F4B8CFD801ED91FC91AD
:1026C0000088F189E02DC80169814A812B81099533
:1026D0000F900F900F90CF91DF911F910F91FF906E
:1026E000EF90DF90CF90BF900895089508950895DA
:1026F000089508950895AF92BF92DF92EF92FF92EE
:102700000F931F93CF93DF93FC01DB0140E050E078
:1027100001E010E0BC01615C7F4FDD24D39491E4C3
:10272000A92EB12CAE0EBF1EEE24EA94FE2C8C9185
:1027300080FF18C011968C91119790E0841795072F
:1027400089F4C801042E02C0880F991F0A94E2F789
:10275000EB012881398182239323892B19F056AF0D
:1027600045AFD3AE8C9181FF18C011968C91119713
:1027700090E08417950789F4C801042E02C0880FE1
:10278000991F0A94E2F7E501288139818223932376
:10279000892B19F0F6AEE5AED3AE4F5F5F4F4830F0
:1027A000510529F681E0DF91CF911F910F91FF90A4
:1027B000EF90DF90BF90AF900895CF93DF93EC013F
:1027C0008F89882389F0109209476B9689EB96E4EC
:1027D000BE010E940B1081E080930947609689EB4F
:1027E00096E4BE010E940B10DF91CF910895CF9324
:1027F000DF93EC018F89882311F041E008C0C75BAB
:10280000DF4F8881C954D0408823F9F040E08BE441
:1028100098E460E00E94E912C75BDF4F8BE498E424
:1028200061E048810E94E91210920947A69789EB5E
:1028300096E4BE010E940B1081E0809309476096E8
:1028400089EB96E4BE010E940B10DF91CF910895B1
:102850000F931F93CF93DF93EC018A0186EE91E0F3
:1028600099838883198E188E1F8A6115710539F036
:10287000CE01029641E150E00E940E1D01C01A8275
:102880000115110541F0CE014396B80144E050E036
:102890000E940E1D01C01B8A1A8EDF91CF911F91DD
:1028A0000F910895AF92BF92CF92DF92EF92FF9275
:1028B0000F931F9308E217E4C80160E070E040E066
:1028C00050E00E9428148AEB91E09093294780936E
:1028D000284710926347F80116AE15AE1092434791
:1028E000109253478BE697E460E070E040E050E0E0
:1028F0000E942814109287471092864710928947A9
:102900001092884710928B4710928A4710928D47F9
:1029100010928C4780ED91E090936C4780936B47C9
:1029200045EBA42E47E4B42EC5010E94240E39ECD9
:10293000C32E37E4D32EC6010E94240E2DEDE22EC5
:1029400027E4F22EC7010E94240E01EF17E4C8010C
:102950000E94240E1092AF471092B1471092B047D8
:1029600010928E47B0928747A0928647D0928947AF
:10297000C0928847F0928B47E0928A4710938D4728
:1029800000938C471F910F91FF90EF90DF90CF90B5
:10299000BF90AF900895AF92BF92CF92DF92EF9227
:1029A000FF920F931F93CF93DF937C0177FF03C0B8
:1029B00060E070E005C06D30710514F06CE070E00F
:1029C0008701095B1F4FD8016D937C93C0E0D0E075
:1029D00054E1A52EB12C6801CA9DC001CB9D900D7C
:1029E000DA9D900D1124865B9F4FF701EC0FFD1FC0
:1029F000D6012D913C91E20FF31F8E0D9F1D63A90F
:102A00000E94430D2196C430D10531F789E498E442
:102A100061E0F80140810E94DB12DF91CF911F91AC
:102A20000F91FF90EF90DF90CF90BF90AF900895FF
:102A30000F931F93CF93DF93EC018B01FB018081F8
:102A400080FF0EC08181853059F4C95BDF4F6881FA
:102A50007981C754D04064507040CE010E94CB149D
:102A6000F801808180FF0EC08181863059F4C95BF6
:102A7000DF4F68817981C754D0406C5F7F4FCE01B2
:102A80000E94CB14F801808180FF0BC081818430CB
:102A900041F4CC5BDF4F81E0899319821882C554E1
:102AA000D040F801808180FF0BC08181873041F4E4
:102AB000CC5BDF4F81E0899381E090E0998388834C
:102AC00081E0DF91CF911F910F9108950F931F9394
:102AD00009E418E4FC01E95BFF4FC80161E04081B3
:102AE0000E94DB12C80160E00E94CA1280E49CE9E7
:102AF0000197F1F71F910F910895EF92FF920F93B5
:102B00001F938C0160E070E00E94CB1469E4E62E14
:102B100068E4F62EC70161E00E94CA12095B1F4FEC
:102B2000C70161E0F80140810E94DB121F910F9103
:102B3000FF90EF9008950F931F93CF93DF93EC01D5
:102B40000E9430168E01075B1F4FF8018081882399
:102B500079F089E498E461E00E94CA12C95BDF4F12
:102B600089E498E461E048810E94DB12F801108258
:102B7000DF91CF911F910F9108953F924F925F92F5
:102B80006F927F928F929F92AF92BF92CF92DF927D
:102B9000EF92FF920F931F93CF93DF936C01AAE400
:102BA000AA2EB12CA80EB91EEE24FF24F4E14F2E5C
:102BB000512CE7E46E2E712C680E791E79E4872E75
:102BC000912C880E991E33243394E49CE001E59CFB
:102BD000D00DF49CD00D1124C65BDF4FCC0DDD1D54
:102BE000D501ED91FC910084F185E02DCE01099590
:102BF0008823A9F08BE498E462E04E2D0E94E9124C
:102C0000F301008111810E0D1F1DCE010E94300DB8
:102C10000C0D1D1DD801D3968C93F40130820894BD
:102C2000E11CF11C84E190E0A80EB91E94E0E916C5
:102C3000F10459F6DF91CF911F910F91FF90EF9022
:102C4000DF90CF90BF90AF909F908F907F906F90CC
:102C50005F904F903F900895089580E00895089503
:102C60001F93CF93DF93EC0110E0AB8DBC8D1097D9
:102C700041F0ED91FC9111970680F781E02DCD0197
:102C800009951F5F2296143081F7DF91CF911F9134
:102C90000895DF92EF92FF920F931F938C01109291
:102CA000094729EBE22E26E4F22EC7010E946D0FA0
:102CB000DD24D394D0920947C7010E946D0FF8011B
:102CC000D78A1F910F91FF90EF90DF9008951F9387
:102CD000CF93DF93EC0110E08B8D9C8D009711F06A
:102CE0000E94FB0C1F5F22961430B1F7DF91CF9149
:102CF0001F910895CF92DF92EF92FF920F931F934F
:102D0000DF93CF93CDB7DEB728970FB6F894DEBF29
:102D10000FBECDBFE82ED92EFFB6F8948E010F5FFF
:102D20001F4FC80169E178E448E050E00E94031DAC
:102D300083E198E40E940717FFBE2E2D3D2DC901A7
:102D40007C0179E0C72ED12CCC0EDD1EF701A38DBE
:102D5000B48D109749F0ED91FC9111970480F581A5
:102D6000E02DCD01B801099582E090E0E80EF91E52
:102D70000E5F1F4F0C151D0549F728960FB6F894E6
:102D8000DEBF0FBECDBFCF91DF911F910F91FF909E
:102D9000EF90DF90CF90089510920C4810920B485E
:102DA00088E491E090930748809306488FEF8093E2
:102DB00008481092094810920A4885E098E460E0BB
:102DC0000E94740B089510920E4810920D481092B4
:102DD000104810920F481092114808959698969AAC
:102DE00020E030E040E0220F331F80B390E065E048
:102DF000969587956A95E1F781709070282B392B0D
:102E00009798979A4F5F403171F7C90108954FB76E
:102E1000F894FC0180E0178216828F5F329684302E
:102E2000D1F74FBF0895AF92BF92CF92DF92EF924A
:102E3000FF920F931F93CF93DF93EC01D62EC72EF3
:102E40008C0181E2E82E88E4F82E862F972F9C01D2
:102E500060E070E0A880B980C9018A259B25837055
:102E60009070892B09F460C0D7018C9180FF05C058
:102E7000FB013396EE0FFF1F04C0FB01EE0FFF1F97
:102E80003796EC0FFD1FD80112968C91482F50E019
:102E9000437050704115510559F4C501837090700D
:102EA000019731F4C901837090700397B9F40DC094
:102EB0004330510581F4C501837090700297D9F4B5
:102EC000C90183709070892BC9F48081803444F5E6
:102ED00080818F5F24C04115510569F4B3E0AB22B6
:102EE000BB2482E0A816B104D9F4C90183709070A4
:102EF0000397B1F40FC04330510591F493E0A92238
:102F0000BB24A1E0AA16B10459F4C90183709070E2
:102F1000892B31F48081813C1CF080818150808339
:102F200088818370F801828388819981969587953D
:102F300096958795998388836F5F7F4F0F5F1F4FAB
:102F400085E090E0E80EF91E6430710529F03695B1
:102F50002795369527957ECFD882C982DF91CF916C
:102F60001F910F91FF90EF90DF90CF90BF90AF90A7
:102F70000895E1E2F8E49081892F877C808380FFC7
:102F800003C08260808302C0957C9083359688E47C
:102F9000E934F80781F70895E1E2F8E470E0808110
:102FA00060FF02C0816001C08E7F8083359688E417
:102FB000E934F80719F075956795F0CF089581B356
:102FC000806C81BB8D989598979A969A8FB7F89454
:102FD000E9E1F8E411821082329698E4E132F907CF
:102FE000C9F78FBF109215481092164810921748D3
:102FF00010921848109214481092134881E298E4F5
:103000000E94B91708951E9A1E980895DC01E2E601
:10301000F0E080816F70807F862B8083ED91FC9142
:1030200011970190F081E02DCD0109950895FF924F
:103030000F931F938C01F62EDC01ED91FC9170E053
:1030400084E0759567958A95E1F70280F381E02D1C
:10305000C8010995D801ED91FC91BFE0FB220280E7
:10306000F381E02DC8016F2D09951F910F91FF90FD
:103070000895DC011A98ED91FC910084F185E02D12
:10308000099588EC90E00197F1F70895DC011A9A10
:10309000ED91FC910084F185E02D099588EC90E09C
:1030A0000197F1F708950F931F938C01DC01ED91C7
:1030B000FC910280F381E02D63E00995D801ED9148
:1030C000FC910280F381E02DC80162E0099580E265
:1030D00093E00197F1F7D801ED91FC910480F5811F
:1030E000E02DC80168E20995D801ED91FC910480BA
:1030F000F581E02DC8016CE00995D801ED91FC91B6
:103100000480F581E02DC80164E00995D801ED91B6
:10311000FC910480F581E02DC80161E00995D8019A
:10312000ED91FC910480F581E02DC80162E00995E4
:1031300080E29EE40197F1F71F910F910895DC0161
:103140008CEF91E011969C938E93E1E6F0E0808104
:103150008F6080831092620082B1846482B9CD0155
:103160000E945318089589E498E40E949F180895D6
:10317000EF92FF920F931F93CF93DF938C017B010C
:10318000EA010CC0D7016D917D01D801ED91FC9150
:103190000480F581E02DC80109952197209791F7CA
:1031A000DF91CF911F910F91FF90EF9008950895B7
:1031B000DC01ED91FC910480F581E02D09950895E5
:1031C000EF92FF920F931F938C01F42EE22E0E9438
:1031D000AC09D801ED91FC910480F581E02DC80186
:1031E0006F2D0995D801ED91FC910480F581E02DBA
:1031F000C8016E2D09951F910F91FF90EF900895D2
:10320000FF920F931F938C01F42E0E94AC09D801FA
:10321000ED91FC910480F581E02DC8016F2D099599
:103220001F910F91FF9008950E94AC090895DF92BD
:10323000EF92FF920F931F938C017B01D42E60EFCE
:103240000E94AC09D801ED91FC910280F381E02D40
:10325000C801B7014D2D50E00995C80167EF0E94E4
:10326000AC091F910F91FF90EF90DF900895EF92BE
:10327000FF920F931F937A018B01DC01AC55B74F7E
:10328000FC01EA55F74F4FB7F8942D913C911197F7
:10329000808191814FBF28173907A9F760E472E454
:1032A0008FE090E0A80197010E94831DC901DA0117
:1032B0000197A109B109292F3A2F4B2F55272093A8
:1032C000900089B91F910F91FF90EF900895FC0134
:1032D000128242E15AE760E070E00E94371986E00E
:1032E0008093950088E98AB9569A0895FC0114AE36
:1032F000E359FF4F1082F1961082EE59F04014828C
:10330000128213821386128611861682158282E239
:1033100092E091838083E156FF4F118210823296B2
:1033200011821082EE5FF74F119211821082329655
:1033300011821082EE5FFB4F1082E85AFC40CF01F1
:103340000E94671908955D9BFECF6CB90895CF93D5
:10335000DF93FC01EC01CC55D74FDC01AA55B74FE8
:1033600075E34FB7F894288139818D919C9111971D
:103370004FBF2817390709F045C05D9B43C06CB9A2
:1033800051C08FB77894972F9A95F1F78FBF8FB769
:10339000F8942D913C911197488159818FBF2F5FEF
:1033A0003F4F337024173507E1F6EBCF8FB7F89412
:1033B000DF01AA55B74F2D913C911197EC55F74F6E
:1033C00040815181E45AF8408FBF2F5F3F4F3370E7
:1033D0002417350731F4E855F34F80818F5F8083E0
:1033E00021C08D919C911197E80FF91FE855F74F77
:1033F00060838D919C9111970196937011969C9387
:103400008E9310C08FB7F8942D913C9111974881FD
:1034100059818FBF2F5F3F4F33702417350709F451
:10342000B6CFC4CFDF91CF910895FC014FB7F89488
:10343000E156FF4F21913191808191814FBF40E052
:103440002817390709F041E0842F0895FC014FB790
:10345000F894DC01A156BF4F2D913C911197EF5587
:10346000FF4F80819181E15AF0404FBF2817390703
:1034700011F420E010C08D919C911197E80FF91F75
:10348000ED55FF4F20818D919C911197019697707A
:1034900011969C938E93822F08951F920F920FB6D0
:1034A0000F9211242F933F934F938F939F93EF93FA
:1034B000FF934FB7F8942091EF503091F0508091E6
:1034C000F1509091F2504FBF28173907B9F14FB71B
:1034D000F8942091EF503091F0508091F1509091FC
:1034E000F2504FBF2817390711F4E0E007C0E09110
:1034F000EF50F091F050ED50FF4AE081ECB94FB73A
:10350000F8942091EF503091F0508091F1509091CB
:10351000F2504FBF2817390789F0E091EF50F09132
:10352000F050ED50FF4AE0818091EF509091F050C3
:10353000019693709093F0508093EF50FF91EF912C
:103540009F918F914F913F912F910F900FBE0F90B0
:103550001F901895FC0114AEE359FF4F1082F196AD
:103560001082EE59F040148213821386128611865F
:10357000168215828AE092E091838083E156FF4FA4
:1035800011821082329611821082EE5FF74F108204
:10359000E35AF8401282109298008FE180939900CC
:1035A00086E080939D0080E980939A000895FC0155
:1035B0001282109298008FE18093990086E08093A8
:1035C0009D0080E980939A000895FC014FB7F8941C
:1035D000E156FF4F21913191808191814FBF40E0B1
:1035E0002817390709F041E0842F0895FC014FB7EF
:1035F000F894DC01A156BF4F2D913C911197EF55E6
:10360000FF4F80819181E15AF0404FBF2817390761
:1036100011F420E010C08D919C911197E80FF91FD3
:10362000ED55FF4F20818D919C91119701969770D8
:1036300011969C938E93822F08958BE498E40E94B8
:10364000761984EF94E50E94AA1A08951F920F92AA
:103650000FB60F9211242F933F934F935F936F9365
:103660007F938F939F93AF93BF93EF93FF9360915B
:103670009C00683FD8F080914D4590914E4503974E
:10368000A9F46A3F49F06C3F61F0683F99F48AE120
:1036900095E40E94260636C08AE195E40E94BF02A6
:1036A00031C08AE195E40E94DA022CC08091F7448F
:1036B000882341F18FB7F894209195553091965514
:1036C00040919355509194558FBF2F5F3F4F377066
:1036D0002417350731F48091975D8F5F8093975D54
:1036E00011C0E0919555F0919655E956FA4A6083DC
:1036F0008091955590919655019697709093965517
:1037000080939555FF91EF91BF91AF919F918F91CC
:103710007F916F915F914F913F912F910F900FBECD
:103720000F901F9018951F920F920FB60F921124B1
:103730002F933F934F935F936F937F938F939F93B9
:10374000AF93BF93EF93FF936CB1683F08F450C001
:1037500080914D4590914E45029709F049C06A3FCE
:1037600079F06B3F18F4683FD1F405C06B3F91F0DE
:103770006C3FA9F40AC08AE195E40E94260664C061
:103780008AE195E40E94BF025FC08AE195E40E944D
:10379000DA025AC08AE195E40E94EC0255C08FB764
:1037A000F8942091EC483091ED484091EA485091CE
:1037B000EB488FBF2F5F3F4F37702417350731F429
:1037C0008091EE508F5F8093EE503EC0E091EC48C8
:1037D000F091ED48E251F74B60838091EC48909175
:1037E000ED48019697709093ED488093EC482CC07B
:1037F0008FB7F8942091EC483091ED484091EA4819
:103800005091EB488FBF2F5F3F4F3770241735071C
:1038100031F48091EE508F5F8093EE5011C0E091B3
:10382000EC48F091ED48E251F74B60838091EC4811
:103830009091ED48019697709093ED488093EC48F5
:103840008091EE5081111D98FF91EF91BF91AF9142
:103850009F918F917F916F915F914F913F912F91A8
:103860000F900FBE0F901F9018950895089508951A
:10387000089508950895CB010E9483000895CB0117
:103880000E94351C0895CB010E94361C0895CB017F
:103890000E94371C0895CB010E94381C0895CB016B
:1038A0000E94391C0895CB01BA010E943A1C089568
:1038B000AAE0B7E4E0E0F0E08D919C9111970097C9
:1038C00019F08258904049F4EE0FFF1FE65FF84B65
:1038D00082E890E091838083089531961296E430D7
:1038E000F10551F7089543E55CE13091E145383049
:1038F000C0F5E1EBF5E420E015C0808191818859A5
:103900009D4571F48281938183559C4149F4848162
:103910009581009731F14115510511F480FF21C0C7
:103920002F5F3696231748F3832F90E0FC01EE0FAC
:10393000FF1FE80FF91FEE0FFF1FDF01A65EBA4B56
:10394000A956BF4F88E99DE511969C938E931496D6
:103950001D921C92ED54FA4B518340833F5F30938C
:10396000E1450895EF92FF920F931F9358E9E52EDA
:103970005DE5F52E20E030E040E050E02BE33CE157
:103980000FE410E4C801B7010E94B80A20E030E05B
:1039900040E050E02FE33CE1C801C197B7010E942D
:1039A000B80A20E030E040E050E023E43CE181EB65
:1039B00090E4B7010E94B80A20E030E040E050E017
:1039C00027E43CE101ED13E4C801B7010E94B80A05
:1039D00020E030E040E050E02BE43CE1C801C1973A
:1039E000B7010E94B80A20E030E040E050E02FE448
:1039F0003CE183E394E4B7010E94B80A1F910F9160
:103A0000FF90EF900895DC01FB0104C081918D933C
:103A10004150504041155105C9F70895DC01FB01A3
:103A200004C08D933196415050404115510521F00D
:103A300080818823B1F71C920895DC01FB0104C04A
:103A40008D933196415050404115510541F0808190
:103A50008823B1F704C0415050408D9301C080E2EB
:103A600042305105C0F7452B09F01C9208958FB7DD
:103A7000F8942091995D30919A5D8FBFC9010895A6
:103A8000681B790BCB010895680F791F64177507C0
:103A90002CF0A901621773070CF4AB01CA01089559
:103AA000629FD001739FF001829FE00DF11D649F22
:103AB000E00DF11D929FF00D839FF00D749FF00DAE
:103AC000659FF00D9927729FB00DE11DF91F639F4F
:103AD000B00DE11DF91FBD01CF0111240895AA1BEE
:103AE000BB1B51E107C0AA1FBB1FA617B70710F0E9
:103AF000A61BB70B881F991F5A95A9F7809590951B
:103B0000BC01CD010895A1E21A2EAA1BBB1BFD0129
:103B10000DC0AA1FBB1FEE1FFF1FA217B307E407AC
:103B2000F50720F0A21BB30BE40BF50B661F771F04
:103B3000881F991F1A9469F76095709580959095E4
:103B40009B01AC01BD01CF010895EE0FFF1F059051
:103B5000F491E02D09940E94B01D272F0C94B11D03
:103B6000262FE199FECF9FBB8EBB2DBB0FB6F894DD
:0E3B7000E29AE19A0FBE01960895F894FFCFF5
:103B7E004446540001F20000800100900100A001B3
:103B8E0000B00100C00200D00200E00100F102000E
:103B9E00F20100F30200F600000004000000000035
:103BAE00280829082A089E0900000000D8092908BB
:103BBE00E909DB090000000028082908880C2B08F9
:103BCE0000000000B40CB60D830DC10CEF0CB90C47
:103BDE00BD0CD80C6B0D00000000B40CB60D010D21
:103BEE00C10CEF0CB90CBD0CD80C6B0D0000000015
:103BFE00B40CB60D830DC10CEF0CB90CBD0CD80C6A
:103C0E006B0D00000000E31000000000CB0EC40F8F
:103C1E00B50EC80EC90EF20EF30EF40EF50EF60E1C
:103C2E00F70EFF0E020F000000002F167513DD13A6
:103C3E0076137713781379137B137A130000000031
:103C4E007A16BD15F7139B1567167D156615181593
:103C5E007A13000000002F1675132C1676137713A7
:103C6E00781379132D167A13000000000318061826
:103C7E0039184618171800000000D71AB818D718A8
:103C8E00D818E51AF61A14190019E01817190000B9
:103C9E0000006719B818A719A319151A261A1419AE
:063CAE000019E0181719CF
:00000001FF
