:100000000C945C000C9489000C9489000C94890079
:100010000C9489000C9489000C9489000C9489003C
:100020000C9489000C9489000C946A050C94890046
:100030000C9489000C9489000C9443060C9489005C
:100040000C9489000C9489000C9491240C948900E0
:100050000C944B230C9489000C9489000C94890017
:100060000C9489000C9489000C9489000C948900EC
:100070000C9489000C9489000C9424240C9489001D
:100080000C9489000C9489000C94890053454C45CC
:10009000435420504147453A0020202020000204CC
:1000A0000A0A220EDC0EF50E8C13BD188F1A841D61
:1000B000E11FDD20B1211B2411241FBECFEFD0E1B1
:1000C000DEBFCDBFB89AC09885B7806885BF13E002
:1000D000A0E0B1E0E4E4FFE402C005900D92A03995
:1000E000B107D9F71EE5A0E0B0E201C01D92A33C24
:1000F000B107E1F710E0C8EBD0E004C02297FE01A1
:100100000E94F226CE39D107C9F70E94A2060C94AC
:10011000A0270C940000EF92FF920F93DF93CF93F0
:10012000CDB7DEB760970FB6F894DEBF0FBECDBF78
:10013000A82F002309F461C07E010894E11CF11C82
:1001400088E0F70111928A95E9F729833A834B8376
:100150005C836D837E83AF83988780E2801BE82F6A
:10016000FF27E7FDF0954D815E816F817885181638
:1001700084F01D861E861F86188A882799278E1B65
:100180009F0B04C076956795579547958A95D2F74A
:1001900028C0202F332727FD3095DB01CA01022E0E
:1001A00004C0B695A795979587950A94D2F78D8741
:1001B0009E87AF87B88B04C0440F551F661F771FFB
:1001C000EA95D2F789819A81AB81BC8104C0B6954A
:1001D000A795979587952A95D2F7482B592B6A2B87
:1001E0007B2B49875A876B877C8729853A854B8586
:1001F0005C856D857E85AF8598898A2F60960FB660
:10020000F894DEBF0FBECDBFCF91DF910F91FF906D
:10021000EF900895EF92FF920F93DF93CF93CDB7B6
:10022000DEB760970FB6F894DEBF0FBECDBFA82F24
:10023000002309F461C07E010894E11CF11C88E0F0
:10024000F70111928A95E9F729833A834B835C83FE
:100250006D837E83AF83988780E2801BE82FFF2722
:10026000E7FDF09549815A816B817C81181684F0F5
:1002700019861A861B861C86882799278E1B9F0B3A
:1002800004C0440F551F661F771F8A95D2F728C0F8
:10029000202F332727FD3095DB01CA01022E04C031
:1002A000880F991FAA1FBB1F0A94D2F789879A87C4
:1002B000AB87BC8704C07695679557954795EA95B7
:1002C000D2F78D819E81AF81B88504C0880F991FB8
:1002D000AA1FBB1F2A95D2F7482B592B6A2B7B2BC1
:1002E0004D875E876F87788B29853A854B855C853E
:1002F0006D857E85AF8598898A2F60960FB6F894B4
:10030000DEBF0FBECDBFCF91DF910F91FF90EF9079
:1003100008958F929F92AF92BF92CF92DF92EF9209
:10032000FF920F931F93CF93DF93EC015B016A0160
:10033000982E8D2EE881F9810280F381E02DB9019C
:100340000995FE86ED86AC14BD042CF4B98AA88A02
:10035000DB8ACA8A04C0D98AC88ABB8AAA8AE88189
:10036000F9810684F785E02D892D982DB80140E0AC
:100370000995DF91CF911F910F91FF90EF90DF9042
:10038000CF90BF90AF909F908F900895089508955B
:1003900080E008950895DC0157966C935797662383
:1003A00021F081E056968C935697ED91FC91119730
:1003B0000680F781E02DCD0109950895089580E02C
:1003C00008950F931F93CF93DF93EC018B01E88186
:1003D000F9810280F381E02D0995DC01009759F045
:1003E000ED91FC910684F785E02DB80109958823ED
:1003F00011F081E008C0E881F9810084F185E02DE9
:10040000CE01B8010995DF91CF911F910F91089509
:1004100008950895089508950895FC01662321F034
:10042000868991E08927868B089580E090E0089581
:10043000FB01DA0110821C920895089588E10FB63D
:10044000F89481BD11BC0FBE8FEF84BB15BA21E0BB
:1004500025BF80E885BF8C9A949A89E080938A00B2
:1004600081E880938B0080EA90E0909387008093EE
:10047000860082B1806382B982E083BF2FBD8EB5D2
:1004800089608EBD87B7846087BF8BE485BD87B7E1
:10049000806487BF0895CF93DF93EC01FB018081D7
:1004A000282F30E0A9014170507080FF13C0918166
:1004B000943011F4689604C0953041F4C357DF4F6F
:1004C0008FED97E4BE010E9438182FC0963039F0A6
:1004D000973029F021FF1FC081818730E1F4CE01E0
:1004E0008E5F9E4F0E94D41ECC5CDE4F8881882395
:1004F00039F08FED97E460E071E047E051E006C02D
:100500008FED97E460E071E04DE051E028E532E0E6
:100510000E94A7150AC0452B41F08181882329F448
:10052000CE018E5F9E4F0E949F1F81E0DF91CF9191
:100530000895EF92FF920F931F93DF93CF9300D014
:10054000CDB7DEB78C018E5F9E4F0E949C1E38E1B6
:10055000E32EF12CE00EF11ED80113961C92139796
:1005600013968C91139712968C931297ED91FC91A0
:100570000280F381E02DC8010995E816F90609F417
:1005800057C0F80100AB11AB82A9882361F4008C3D
:10059000F18DE02D0088F189E02DC701099581E0FA
:1005A000D801D2968C93C7010E94841CD80158961A
:1005B000ED91FC9159970284F385E02DC7010995CF
:1005C000F80193818281891720F492818381985F59
:1005D00006C0D80112969C91129713968C91981B85
:1005E000973039F4F801838190E00196877090701C
:1005F0008383D80112962C91129713968C91FA82CC
:10060000E982820F90E0877090700296880F991FA0
:10061000800F911FBE016F5F7F4F42E050E00E944C
:100620000426F801828190E00196877090708283A1
:100630000F900F90CF91DF911F910F91FF90EF904E
:100640000895DF93CF9300D0CDB7DEB7FC011A82B7
:100650001982928183819817D9F08281882319F4B5
:1006600067E070E004C082818150682F70E0838170
:10067000680F711D677070E06E5F7F4F660F771FA8
:100680006E0F7F1FCE01019642E050E00E940426CB
:1006900089819A810F900F90CF91DF910895CF9328
:1006A000DF93EC01C7960E94D711882399F0CD58AB
:1006B000DF4FE881F981C357D040ABADBCADAA0F85
:1006C000BB1FAC52BE4F8D919C9195878487CF0103
:1006D0000E949F1FCE01815A9F4F0E94D7118823ED
:1006E00049F0CD58DF4FE881F98160978881C35682
:1006F000D04084ABCE01855B9F4F0E94D7118823E9
:1007000061F0CD58DF4FE881F981A4978881CF54FB
:10071000D04083ABCF010E949F1FCE0183960E94E1
:10072000D711882341F0CD58DF4FE881F981C357B5
:10073000D0408FA181ABDF91CF910895CF93DF930C
:10074000EC01C7960E94D711882371F4CE01855B16
:100750009F4F0E94D711882339F4CE01815A9F4FB1
:100760000E94D711882389F0FE01ED58FF4FDE016A
:10077000A15BBF4F9E012D593F4F808191816BAD91
:100780004C91F90120810E94B51DCE0183960E94F3
:10079000D711882341F0FE01ED58FF4F80819181F0
:1007A0006FA10E94B61FDF91CF9108956F927F9243
:1007B0008F929F92AF92BF92CF92DF92EF92FF9271
:1007C0000F931F936C014B013A015901B901A70125
:1007D0000E94F01285EC92E0F60191838083C601BD
:1007E000B401A30195010E9489011F910F91FF900F
:1007F000EF90DF90CF90BF90AF909F908F907F90C1
:100800006F9008954F925F926F927F928F929F9216
:10081000AF92BF92CF92DF92EF92FF920F931F930E
:100820001092022010920320109215201092142092
:10083000109216201092172086EE91E090930120DE
:1008400080930020109231201092302010922F209F
:1008500010921A2010922B201092322010923420E5
:1008600010923320109236201092352010923820AA
:100870001092372010923A201092392082E292E0B2
:1008800090931920809318200BE3402E00E2502E05
:10089000C20161E070E040E250E025E131E004E0B7
:1008A00010E0EE24FF240E94D6031FE4612E10E224
:1008B000712EC30161E070E040E250E029E131E0D7
:1008C00003E010E00E94D603B3E6AB2EB0E2BB2EED
:1008D000C50162E070E040E250E02DE131E008E067
:1008E00010E00E94D603A7E7CA2EA0E2DA2EC601C6
:1008F00060E070E040E250E021E231E000E010E032
:100900000E94D603F2E08F2EF1E29F2E90928C206F
:1009100080928B2050923420409233207092362067
:1009200060923520B0923820A0923720D0923A20A1
:10093000C09239201092A6201092A5201092A420D7
:1009400010928F201092A0201092A7201092A92020
:100950001092A8201092AB201092AA201092AD20E5
:100960001092AC201092AF201092AE2088E392E05B
:1009700090938E2080938D2005E211E0E0EBCE2E47
:10098000E0E2DE2EC601B80140E050E00E94F01225
:1009900085EC92E09093B1208093B020C6016FE087
:1009A00070E040E050E0980100E010E00E94890112
:1009B00089E992E09093B1208093B02074EC672E87
:1009C00070E2772EC30160E070E046E050E029E27B
:1009D00031E00E94D60368EDA62E60E2B62EC50176
:1009E00060E070E044E050E02DE231E00E94D60388
:1009F0000CEE10E2C80161E371E00E944F13909287
:100A0000012180920021D092A920C092A8201093A9
:100A1000AF200093AE20B092AD20A092AC20709297
:100A2000AB206092AA20C40160E070E00E94BB1F6E
:100A300089E391E461E779E449E351E220E030E2BF
:100A40000E94490B8BEB94E46AE176E54BEB52E4B0
:100A500020E032E00E94490B1F910F91FF90EF9030
:100A6000DF90CF90BF90AF909F908F907F906F90CE
:100A70005F904F900895CF93DF9380913F468823F6
:100A800031F581E080933F46789488E399E40E94B1
:100A9000EC1FEC0180913D4690913E46C817D90766
:100AA000A1F087E499E40E94B72087E499E46D2FD0
:100AB0000E94CA2089E399E4BE010E941120D093CC
:100AC0003E46C0933D460E94BC1310923F46DF91C4
:100AD000CF9108951F920F920FB60F9211242F936A
:100AE0003F934F935F936F937F938F939F93AF93B6
:100AF000BF93EF93FF938091BF5E9091C05E01968C
:100B00009093C05E8093BF5E2091BF5E3091C05EC7
:100B10008091372190913821281B390B37FF03C072
:100B2000309521953F4F295B3B4054F0109273491B
:100B30008091BF5E9091C05E909338218093372161
:100B400080917A4990917B492FEF8F3F920729F04E
:100B5000019690937B4980937A4980917C498823C0
:100B6000D9F08091764990917749009781F4E0918E
:100B70007149F09172490480F581E02D81E799E493
:100B80006EEF0995809178499091794901C001975C
:100B9000909377498093764980912356909124567B
:100BA0002FEF8F3F920729F0019690932456809360
:100BB0002356809125568823D9F080911F56909115
:100BC0002056009781F4E0911A56F0911B5604804C
:100BD000F581E02D8AE196E56EEF09958091215629
:100BE0009091225601C001979093205680931F56F2
:100BF0000E943B05FF91EF91BF91AF919F918F9123
:100C00007F916F915F914F913F912F910F900FBE08
:100C10000F901F90189509C081E799E40E94242342
:100C2000682F89E391E40E94840B81E799E40E9494
:100C30001323882389F709C08AE196E50E94F423EB
:100C4000682F8BEB94E40E94840B8AE196E50E9466
:100C5000E323882389F708951F93182F8091734603
:100C6000909174460297029720F480E496E40E94E3
:100C700003080E940B06112321F08FED97E40E94D8
:100C8000A0161F9108951F920F920FB60F92112474
:100C90002F933F934F935F936F937F938F939F9384
:100CA000AF93BF93EF93FF938091C15E9091C25E2B
:100CB00001969093C25E8093C15E8091714690913F
:100CC0007246029721F480E496E40E940F0AFF9195
:100CD000EF91BF91AF919F918F917F916F915F91B4
:100CE0004F913F912F910F900FBE0F901F9018952D
:100CF000F89484E090E060E070E00E94572729E0DB
:100D000088E190E00FB6F894A89581BD0FBE21BD93
:100D1000FFCF0F931F9300E010E2C8010E949902D9
:100D20008FED97E4B8010E94471882E090E090931D
:100D300074468093734680E496E40E94A6071F9150
:100D40000F9108950F931F9388EE93E020E931E00F
:100D5000F9013197F1F70197D9F70E941E021C9A09
:100D60001D9A88E399E40E94EC1F8C0187E499E4C2
:100D70000E94B72087E499E4612F0E94CA2089E38A
:100D800099E4B8010E94112000933D4610933E461D
:100D9000AEEAB2E4E0E0F0E08D919C91119700970B
:100DA00019F08A50974479F4EE0FFF1FE255FD4B7E
:100DB0008AE097E4918380838CE992E490931047D2
:100DC00080930F4705C031961296E430F10521F764
:100DD000889A0E9489060E9459250E94B3250E9484
:100DE0007425789481E00E942C06FCCFEF92FF924C
:100DF0000F931F937B018C0161157105810591058E
:100E000029F420E030E040E050E00BC00E94492788
:100E1000A80197010E94D526AC01CB01DA019C0103
:100E2000AD01B901CA011F910F91FF90EF90089594
:100E3000FC0112AA11AA80E197E291A380A315A256
:100E400014A284A195A197A386A314821582168269
:100E50001782108211821282138280819181A28175
:100E6000B38180879187A287B387148A158A168AEF
:100E7000178A84899589A689B78984879587A687E3
:100E8000B787108E118E128E138E808D918DA28D4C
:100E9000B38D808B918BA28BB38B158E858D848FB8
:100EA00088EC90E094A783A710AA0895CF93DF93CE
:100EB000EC018FA5882359F0E0917149F0917249B6
:100EC0000480F581E02D81E799E46AEF0995CE0170
:100ED0000E94180781E090E09AAB89ABDF91CF9137
:100EE0000895FC0112AA11AA87A5882359F0E09160
:100EF0007149F09172490480F581E02D81E799E410
:100F00006CEF09950895CF93DF93EC018FA58823AB
:100F100059F0E0917149F09172490480F581E02D1A
:100F200081E799E46BEF099581E090E09AAB89AB9A
:100F300080E197E299A388A31DA21CA28CA19DA188
:100F40009FA38EA318AADF91CF910895CF93DF932B
:100F5000EC018BA99CA90197A9F4CE010E94180766
:100F600082E090E09AAB89AB8FA5882359F0E0919D
:100F70007149F09172490480F581E02D81E799E48F
:100F80006AEF0995DF91CF910895FF920F931F9318
:100F90008C01FFB6F894FC0176A765A79B0140E0A1
:100FA00050E06AE572E682E090E00E94B3262051AC
:100FB0003040F801378F268FFFBE1F910F91FF90B1
:100FC00008950F931F938C010B591F4FF801108246
:100FD0000F5C1F4FF80110820F5C1F4FF801108249
:100FE000075C1040C8010E941807F80114AA13AA50
:100FF000C80168E770E00E94C507F80117A611A6AE
:101000001F910F9108958F929F92AF92BF92CF92AE
:10101000DF92EF92FF920F931F93CF93DF93EC0138
:1010200089A5882309F056C089A99AA9029709F0D1
:1010300051C08FB7F8948E8C9F8C2EA13FA16CA1CC
:101040007DA18FBF2617370728F0C901861B970B94
:10105000BC0104C060957095620F731F6038710504
:1010600010F460E870E088A9882319F481E088AB67
:1010700020C0ABA4BCA480E090E020E031E02A19BD
:101080003B0940E050E00E9461267B018C01CC24AA
:10109000DD24940140E050E0C601B5010E946126C4
:1010A000E60EF71E081F191FEF2CF02E012F112737
:1010B000B70190E56030790718F06FEF7FE405C065
:1010C0006038710510F460E870E08FB7F8947F8F96
:1010D0006E8F8FBFDF91CF911F910F91FF90EF9097
:1010E000DF90CF90BF90AF909F908F900895FC01BC
:1010F00081A992A90197C9F583A994A9019719F02B
:1011000081A5882391F182E090E092AB81AB0895B4
:1011100080859185A285B3850196A11DB11D80872B
:101120009187A287B387848D8F5F848F848D86306B
:1011300069F4148E80899189A289B3890196A11DD1
:10114000B11D808B918BA28BB38B03C0848D8330B8
:1011500081F484859585A685B7850196A11DB11D6D
:1011600084879587A687B787089581A992A9029752
:1011700079F20895CF92DF92EF92FF921F93CF936F
:10118000DF93EC016A017B0110E043C0412F50E086
:10119000CA01880F991F840F951FFC01EE0FFF1FD6
:1011A000EC0FFD1F24813581DC01119620FF16C054
:1011B000C901959587950190F081E02DE80FF91F01
:1011C000AA0FBB1FAC0FBD1F0190F081E02D8D91C8
:1011D0009C91E80FF91FA081B18107C0AA0FBB1F26
:1011E000AC0FBD1F0D90BC91A02DFA01EE0FFF1F9B
:1011F000E40FF51FEE0FFF1FEC0FFD1F3595279530
:1012000080819181820F931FB701A601FD0109958D
:101210001F5F88A9181708F4B9CFDF91CF911F91EC
:10122000FF90EF90DF90CF900895CF93DF93EC0184
:1012300089A99AA90297D1F588899989AA89BB8930
:1012400083709070A070B0700097A105B10511F483
:101250001C9801C01C9A80910947882339F581E0C8
:101260008093094778948C8D882391F44889598913
:101270006A897B89CE0189569F4F0E94BA084C85A6
:101280005D856E857F85CE018A599F4F0E94BA0881
:101290008C8D833049F44C855D856E857F85CE01CC
:1012A0008A599F4F0E94BA0810920947DF91CF9147
:1012B0000895CF92DF92EF92FF921F93DF93CF9327
:1012C00000D00F92CDB7DEB77C016B01FC0187A582
:1012D000882319F1DE011196EAE4F2E083E001903F
:1012E0000D928150E1F78C2D8F778A83C601880F8C
:1012F000892F881F990B91958F778B83E091714986
:10130000F09172490280F381E02D81E799E4BE01FA
:101310006F5F7F4F43E050E009951FB7F894960147
:10132000220F331FC9018C0D9D1D880F991FA0E04E
:10133000B0E0F70180839183A283B38380819181A0
:10134000A281B38180879187A287B38780859185A9
:10135000A285B38584839583A683B78340E050E05C
:10136000248B358B468B578B84899589A689B789C1
:1013700084879587A687B787C601A0E0B0E0808FF5
:10138000918FA28FB38F808D918DA28DB38D808B25
:10139000918BA28BB38B4089518962897389C70174
:1013A00089569F4F0E94BA08F70144855585668586
:1013B0007785C7018A599F4F0E94BA08F701158E99
:1013C000858D848F1FBF0F900F900F90CF91DF916D
:1013D0001F91FF90EF90DF90CF900895DC01FB010B
:1013E000D3968D919C91D4970297029790F4628145
:1013F00070E06F7770707695762F66277795679592
:10140000818190E08F779070682B792BCD010E94BD
:101410005909089580E496E40E94E1070895EF9247
:10142000FF920F931F93CF93DF93EC0189A588233D
:1014300009F087C088A199A1892B09F07DC08E8D04
:101440009F8D99A388A3789480910847882309F0F9
:1014500078C081E080930847CE010E94770889A96F
:101460009AA9029709F06DC08FA5882319F12885E4
:1014700039854A855B858C819D81AE81BF817901EB
:10148000E81AF90A00E010E012C081E799E468EF79
:101490000E94A1228C819D81AE81BF810196A11DF8
:1014A000B11D8C839D83AE83BF830F5F1F4F0E15CD
:1014B0001F055CF38BA99CA902970297B8F52885B4
:1014C00039854A855B8588819981AA81BB812817E6
:1014D00039074A075B0780F0288539854A855B858F
:1014E00088819981AA81BB810196A11DB11D8217B6
:1014F0009307A407B507D0F488819981AA81BB819D
:1015000088879987AA87BB878C899D89AE89BF897F
:101510008C879D87AE87BF87888D998DAA8DBB8D5F
:10152000888B998BAA8BBB8B8D8D8C8FCE010E9463
:1015300015091092084705C088A199A1019799A3A0
:1015400088A3DF91CF911F910F91FF90EF900895A5
:10155000CF93DF93EC018C8D8FA5882329F081E751
:1015600099E468EF0E94A122CE010E947708CE0183
:101570000E941509DF91CF910895FC0181A5882370
:1015800021F0CF010E94A80A089580A191A193A300
:1015900082A32091C15E3091C25E86A197A195A3DE
:1015A00084A337A326A381A992A9019739F411A294
:1015B00010A282E090E092AB81AB2CC0808191813F
:1015C000A281B3810196A11DB11D80839183A28365
:1015D000B383858D8F5F858F858D863069F4158EF9
:1015E000808D918DA28DB38D0196A11DB11D808F2F
:1015F000918FA28FB38F03C0858D833059F4848976
:101600009589A689B7890196A11DB11D848B958BFB
:10161000A68BB78B83A994A902970297C8F520855A
:1016200031854285538580819181A281B3812817BC
:1016300039074A075B07A0F481E082A722A133A102
:10164000369527953695279580A191A128173907BA
:10165000F8F480A191A1821B930B91A380A308951C
:1016600012A6268D378D82A193A18217930780F44D
:10167000868D978D22A133A140A151A1821B930B8E
:101680009695879596958795840F951F91A380A32E
:1016900008951F93FC01DC01DB9680E090E01C9232
:1016A000C196D19611E087359107C9F7E359FE4FEE
:1016B000518340833497318320833A96118210827C
:1016C0007097119210823B961192119211821082A2
:1016D00039971082769641935193318320837E9778
:1016E00081E08083E256F14071876087E358FE4FC6
:1016F0008FEF8083ED57F1401382128284E090E0F7
:10170000918380831F910895AF92BF92DF92EF92F1
:10171000FF920F931F93CF93DF93EC01162F683F37
:1017200040F06E3F09F021C1E885F98512861186E7
:101730001CC183E6E82E81E0F82EEC0EFD1E02E6C9
:10174000A02E01E0B02EAC0EBD1E01E0F50180819F
:10175000882309F40AC1888199818230910509F4AE
:1017600066C08330910534F4009711F1019709F0B8
:10177000FCC0F0C08330910541F0049709F0F5C03A
:1017800017FFF3C019821882E1CF17FF0CC0173F73
:1017900031F019821882C7010E94D80CD7CFC70137
:1017A0000E945E0DE2C0C701612F0E94A00DDDC046
:1017B000103F51F483E090E099838883C7010E9431
:1017C000C30C1B821A82D1C017FF03C01A831B826D
:1017D00005C08A81882309F4C8C00B832A81203F71
:1017E00008F4207F30E00BC0821741F481819281A0
:1017F000998388838A818D830C830EC03F5F832FFA
:1018000090E0FC01EE0FFF1FE80FF91FE35BFD4FB7
:101810008081882349F720E03A87222319F484E065
:1018200090E0A1C08B81882309F090CF9EC08C816D
:10183000FE01E80FF11D15838F5F8C838A8590E090
:10184000FC01EE0FFF1FE80FF91FE35BFD4F8081E6
:10185000803921F48F81882309F41A862A8527305C
:1018600008F06BC030E0F5E0AF2EB12CAC0EBD1E21
:10187000DD2481E390E0289F8001299F100D389F8F
:10188000100D11247E01E00EF11E8BE390E0E80EB6
:10189000F91E4DC04D2D50E0CA01880F991F840FCD
:1018A000951FFC01EE0FFF1FE00FF11FEC0FFD1F56
:1018B00027853089DC01119620FF1AC0C901959552
:1018C00087950384F485E02DE80FF91FAA0FBB1F4D
:1018D000A00FB11FAC0FBD1F0190F081E02D1B9632
:1018E0008D919C911C97E80FF91FA081B1810AC0CE
:1018F000AA0FBB1FA00FB11FAC0FBD1F1B960D90F1
:10190000BC91A02DFA01EE0FFF1FE40FF51FEE0FA3
:10191000FF1FE00FF11FEC0FFD1F35952795838505
:101920009485820F931FB501FD010995D394F701AA
:101930008081D81608F4AECF0AC08A81823F39F47C
:10194000BE016B5F7F4F80E496E40E94EE0919822E
:1019500018820BC08C81FE01E80FF11D15838F5F8B
:101960008C8382E090E099838883DF91CF911F91EF
:101970000F91FF90EF90DF90BF90AF900895089582
:10198000089508950895FC01118A108A1082158225
:10199000128213821482828593859587848786813B
:1019A0009781978786871186108681E081830895C5
:1019B000EF92FF920F931F93CF93DF93EC0181E09F
:1019C00088838E0188E0E82EF12CEC0EFD1EF801D4
:1019D000A289B3891097D1F012969C9112979F3FDC
:1019E000D9F08D812A81882379F0291779F49B8198
:1019F00013968C911397981749F49C8114968C91A7
:101A00001497981719F408C0291731F00E5F1F4F6B
:101A10000E151F05E1F609C0ED91FC9111970280AA
:101A2000F381E02DCD010995F1CFDF91CF911F9189
:101A30000F91FF90EF900895EF92FF920F931F93F5
:101A4000CF93DF93EC018C0198E0E92EF12CEC0EA2
:101A5000FD1EF801A289B3891097D1F012969C91CE
:101A600012979F3FD9F08D812A81882379F0291719
:101A700079F49B8113968C911397981749F49C8164
:101A800014968C911497981719F408C0291731F0FF
:101A90000E5F1F4F0E151F05E1F609C0ED91FC9179
:101AA00011970190F081E02DCD010995F1CFDF91E3
:101AB000CF911F910F91FF90EF900895EF92FF92B9
:101AC0000F931F93CF93DF93EC018C0128E0E22E5C
:101AD000F12CE80EF91EF801A289B3891097D1F014
:101AE00012969C9112979F3FD9F08D812A8188236D
:101AF00079F0291779F49B8113968C911397981795
:101B000049F49C8114968C911497981719F408C085
:101B1000291731F00E5F1F4F0E151F05E1F609C0A2
:101B2000ED91FC9111970480F581E02DCD0109958F
:101B3000F1CFDF91CF911F910F91FF90EF9008951A
:101B4000CF92DF92FF920F931F93CF93DF93EC011D
:101B5000F62E8881882309F06DC088899989892BA0
:101B600051F46A83662319F481E08D8304C01D82D9
:101B7000CE010E941C0D8D81882369F08889998986
:101B80008130910511F4FB8206C0029721F4FC829A
:101B9000CE010E941C0D8E0138E0C32ED12CCC0E3C
:101BA000DD1EF801A289B3891097D1F012969C919D
:101BB00012979F3FA9F18D812A81882379F02917F7
:101BC00079F49B8113968C911397981749F49C8113
:101BD00014968C911497981719F422C0291701F1C3
:101BE0000E5F1F4F0C151D05E1F688899989019636
:101BF000998B888B89818823E9F0288539858E85A2
:101C00009F8528173907B0F4EC85FD85309791F052
:101C1000E20FF31FF0822F5F3F4F398728870AC0FA
:101C2000ED91FC9111970680F781E02DCD016F2D8C
:101C30000995D6CFDF91CF911F910F91FF90DF9043
:101C4000CF9008951092104710920F4785E792E0C9
:101C500090930B4780930A4710920C4783E180933F
:101C60000D4781E480930E470895DC011596ED91B0
:101C7000FC91169780899189039721F4653011F4BE
:101C80000E94780608951F93CF93DF93EC01162FDF
:101C9000603F50F0E881F981683F10F41A8215C066
:101CA0000680F781E02D14C08C81882361F08A8141
:101CB000861739F0E881F9810480F581E02DCE01A5
:101CC00009951A8308C0E881F9810480F581E02D27
:101CD000CE01612F0995DF91CF911F910895FC01ED
:101CE00017820895FC018091AC429091AD42039718
:101CF00031F4662319F481E08783089517820895EB
:101D0000FC018781882309F456C0A091A642B091B6
:101D1000A74215968C9115978331A9F1843120F44F
:101D2000813109F048C006C08531A1F1873109F041
:101D300042C039C085859685019709F03CC0179649
:101D40008C91179790E09695982F8827979587956F
:101D500016962C91169730E0822B932B92878187D1
:101D600019968C91199790E09695982F88279795BA
:101D7000879518962C9130E0822B932B948783873C
:101D800082E090E00DC0858596850397A1F484E0FC
:101D900090E006C085859685059769F486E090E019
:101DA00096878587089585859685079721F488E02D
:101DB00090E09687858708951092174710921647EE
:101DC00081E892E090931247809311471092134755
:101DD00080E2809314478CE3809315471092194753
:101DE00010921F4710921E4708951092214780912C
:101DF00021478093204780E490E09093B1478093FF
:101E0000B047E0E3F7E41192119287E4E03BF80772
:101E1000D1F710922F4710922E4713821282089505
:101E2000FF920F931F93FB01F18001E719E4C801B2
:101E300060810E94430EE0917149F09172490480E3
:101E4000F581E02DC8016F2D09951F910F91FF902D
:101E50000895EF92FF920F931F93FB01F180E280B0
:101E600001E719E4C80160810E94430EE0917149C5
:101E7000F09172490480F581E02DC8016F2D09951C
:101E8000E0917149F09172490480F581E02DC8011B
:101E90006E2D09951F910F91FF90EF9008950F936C
:101EA0001F93CF93DF93EC018B01B9019A0158A9DD
:101EB000583010F080E048C0FC0140E0D901A1702A
:101EC000B07018C0808191818017910789F4828158
:101ED00093818617970761F4848195818217930710
:101EE00091F16115710521F4109711F480FF2BC059
:101EF0004F5F3696451730F3852F90E0FC01EE0FCB
:101F0000FF1FE80FF91FEE0FFF1FEC0FFD1F1183DE
:101F1000008388A990E0FC01EE0FFF1FE80FF91F76
:101F2000DF01AA0FBB1FAC0FBD1F15963C932E936C
:101F300014973196EE0FFF1FEC0FFD1F7183608326
:101F400088A98F5F88AB81E0DF91CF911F910F91BE
:101F50000895DF92EF92FF920F931F93CF93DF9339
:101F6000EC017B01B9019A01DFB6F89408A9FC01E4
:101F7000A0E0B0E04170507041C0808191818E1529
:101F80009F05D1F58281938186179707A9F58481F2
:101F900095818217930741F06115710569F5411527
:101FA000510551F580FD28C0812F90E09C01220F42
:101FB000331F280F391F220F331F0196BC01660FF4
:101FC000771F680F791F660F771F6C0F7D1F802F9B
:101FD00090E08A1B9B0B0197AC01440F551F480FE3
:101FE000591F440F551FCE01820F931F0E940426D4
:101FF00088A9815088AB06C0119636961A2FA01773
:1020000008F4BBCFDFBEDF91CF911F910F91FF90FE
:10201000EF90DF900895EF92FF920F931F93CF936D
:10202000DF93EC01688360FF0CC020E030E040E00B
:1020300050E029E23FE089E595E4BE010E944F0FA0
:102040000BC020E030E040E050E029E23FE089E5CD
:1020500095E4BE010E94A90F888181FF19C0EE247A
:10206000FF248701F9E2EF2EFFE0FF2E87EF94E4D3
:10207000BE01A80197010E944F0F20E030E040E030
:1020800050E0970186EC94E4BE010E944F0F18C007
:10209000EE24FF248701E9E2EE2EEFE0FE2E87EF2B
:1020A00094E4BE01A80197010E94A90F20E030E04E
:1020B00040E050E0970186EC94E4BE010E94A90F35
:1020C000888183FF0CC020E030E040E050E029E24E
:1020D0003FE088E295E4BE010E944F0F0BC020E074
:1020E00030E040E050E029E23FE088E295E4BE01C4
:1020F0000E94A90F888184FF0CC020E030E040E0FE
:1021000050E020E13FE08AE895E4BE010E944F0FD5
:102110000BC020E030E040E050E020E13FE08AE802
:1021200095E4BE010E94A90F888185FF0CC020E0C4
:1021300030E040E050E020E13FE08BEB95E4BE0171
:102140000E944F0F0BC020E030E040E050E020E163
:102150003FE08BEB95E4BE010E94A90F888186FFCA
:102160000CC020E030E040E050E029E23FE08CEE9F
:1021700095E4BE010E944F0F0BC020E030E040E02C
:1021800050E029E23FE08CEE95E4BE010E94A90FE9
:10219000DE018D9182FF20C020E336E440E050E074
:1021A000F90180819181009719F08A179B0761F4EA
:1021B000440F551F405D594BFA01B183A0838EE156
:1021C00096E49F838E8334C04F5F5F4F2E5F3F4FF7
:1021D0004430510529F72CC080913046909131460A
:1021E0008A179B0721F41092314610923046809155
:1021F0003246909133468A179B0721F4109233465A
:102200001092324680913446909135468A179B074A
:1022100021F41092354610923446809136469091C2
:1022200037468A179B0721F410923746109236469C
:10223000DF91CF911F910F91FF90EF9008950F9331
:102240001F93CF93DF9381E799E460EF0E94430EE1
:102250000091284610912946C0912646D0912746E4
:102260000EC0F80161918F01E0917149F0917249BE
:102270000480F581E02D81E799E409952197209765
:1022800081F781E799E467EF0E94A522DF91CF9162
:102290001F910F9108950F931F93CF93DF93282FD2
:1022A000EB016CE00E948026182F082F0150822F2E
:1022B0000E948026E92FF0E0EE0FFF1FEF59FE4F3E
:1022C00060817181CE0142E050E00E940F2607FF3D
:1022D00007C08DE28A8380E3801B8B831C8203C04E
:1022E000115D1A831B82DF91CF911F910F91089589
:1022F000FF920F931F938C01F62EFC01608170E01A
:1023000080E090E00E94F606060F171FF801018199
:10231000FF2069F06F2D70E080E090E00E94F606EB
:102320002CE030E040E050E00E946126060F802F54
:102330001F910F91FF9008959C012A5F3F4FC901A3
:102340000895FC01848195810895FC018281938127
:102350000895CF93DF93EC012C813D818A819B818D
:102360002817390731F0ED85FE85309711F0CE0141
:1023700009958C819D819B838A83DF91CF910895FC
:10238000CF93DF93EC01442349F07D836C83E88194
:10239000F9810680F781E02D099504C07D836C8367
:1023A0007B836A8381E08F87DF91CF910895FC0161
:1023B00040E022813381848195812817390709F013
:1023C00041E0842F0895FC01138212821582148249
:1023D00008951F93FC01DB01448155811C91848584
:1023E000882319F060E070E016C0828511962C9168
:1023F000882369F0332727FD3095838590E0289F57
:10240000B001299F700D389F700D112404C0622FF8
:10241000772767FD7095212F332727FD3095240FEF
:10242000351F260F371F35832483C9011F91089557
:10243000FC01A081B1811A962D913C911B97F90165
:102440000995882311F480E208958B3110F4805CA3
:1024500008958B5E0895DC01862F81548A3148F4FB
:10246000ED91FC911197772767FD7095605470404E
:102470000CC0862F8053ED91FC9111978A3050F457
:10248000772767FD7095655170400684F785E02DCC
:10249000CD0106C00684F785E02DCD0160E070E037
:1024A00040E0099508951F93DC01162FED91FC91F2
:1024B0000284F385E02D0995AC014F5F5F4F8FEDEE
:1024C00097E4612F0E9442141F910895FF920F9389
:1024D0001F938C01F62EDC01ED91FC910284F385B3
:1024E000E02D0995AC018FED97E46F2D0E94421409
:1024F000F80117861F910F91FF900895EF92FF92B8
:102500000F931F93DF93CF9300D000D00F92CDB7DE
:10251000DEB7DC018B01ED91FC910284F385E02DA7
:1025200009957E010894E11CF11CB7010E944B1132
:10253000000F111F000F111F8FED97E4602FA701EF
:102540000E9402150F900F900F900F900F90CF9157
:10255000DF911F910F91FF90EF900895CF93DF933C
:10256000EC01FB0140818C85882319F060E070E06C
:1025700015C08A852181882369F0332727FD30958E
:102580008B8590E0289FB001299F700D389F700DBA
:10259000112404C0622F772767FD7095842F992737
:1025A00087FD9095680F791F488959892A893B8949
:1025B0008C819D810E9455268C839D83DF91CF91D4
:1025C0000895CF93DF93EC016115710529F006960C
:1025D00044E050E00E941E261986DF91CF910895B5
:1025E000FC018BED92E0918380831382128215822D
:1025F000148281E0828785E0838714865687458729
:102600001786CF010E94E11208956F927F928F92F8
:102610009F92AF92BF92CF92DF92EF92FF920F9371
:102620001F93CF93DF93EC014B015A016901782E80
:102630006D2EB901A7010E94F01285EC92E09983FA
:102640008883E091C702F091C802CE01B6010995D6
:10265000FE86ED868A149B042CF4998A888ABB8AAC
:10266000AA8A04C0B98AA88A9B8A8A8AE881F981E1
:102670000684F785E02D872D962DB80140E0099559
:10268000DF91CF911F910F91FF90EF90DF90CF904E
:10269000BF90AF909F908F907F906F900895CF9252
:1026A000DF92EF92FF920F931F936C019B0160E00A
:1026B00070E04FE750E000E010E0EE24FF240E94BD
:1026C00005138FEA92E0F601918380831F910F91A9
:1026D000FF90EF90DF90CF900895CF92DF92EF922E
:1026E000FF920F931F936C0160E070E045E250E0B1
:1026F00020E030E000E010E0EE24FF240E9405130B
:1027000081EF92E0F601918380831F910F91FF90FA
:10271000EF90DF90CF9008951092B4471092B54794
:102720001092C6470895CF93DF93EC018FB7F894CA
:10273000298198818FBF30E02F5F3F4F2770307025
:10274000921729F48A898F5F8A8B80E012C0898171
:1027500090E00196880F991F8C0F9D1F42E050E07A
:102760000E940426898190E0019687709070898389
:1027700081E0DF91CF910895BF92CF92DF92EF92E7
:10278000FF920F931F93DF93CF9300D0CDB7DEB7A7
:1027900007E419E4FF24BB24B3946E010894C11C20
:1027A000D11C32E0E32EFA82F801808181FF08C05B
:1027B00080FD06C0B98284EB97E4B6010E949313B2
:1027C000F801808181FD08C080FF06C0E98284EBAA
:1027D00097E4B6010E949313F3940B5F1F4FF8E048
:1027E000FF1609F70F900F90CF91DF911F910F9176
:1027F000FF90EF90DF90CF90BF900895FC01E359D8
:10280000FF4FA081B181109719F420E030E009C09A
:10281000ED91FC9111970280F381E02DCD01099596
:102820009C01C9010895FC019B0180E28383CB01D7
:102830006AE070E00E948C26805D8283C9016AE0B4
:1028400070E00E948C269B016115710511F480E2F5
:1028500006C0CB016AE070E00E948C26805D818317
:10286000C9016AE070E00E948C26CB0161157105F8
:1028700011F480E205C06AE070E00E948C26805D61
:1028800080830895FC01E05BFF4F8081E055F040BC
:1028900090E027E230E0DC01A29FC001A39F900DF1
:1028A000B29F900D1124DF01A80FB91F21E05296AD
:1028B0002C93660F660F860F911D02968E0F9F1F39
:1028C000BA010E94131408951F93AC0120E030E078
:1028D000DC01A05BBF4F67E270E010E28C9190E0FA
:1028E000869FF001879FF00D969FF00D1124E40F55
:1028F000F51FE20FF31F12832F5F3F4F2031310589
:1029000069F78C9190E027E230E0829FF001839F8D
:10291000F00D929FF00D1124E40FF51F81E0828BE2
:102920001F910895EF92FF920F931F938C01FA016C
:1029300070E080E5E82EF12CE00EF11ED7018C91BD
:1029400027E2829FC0011124860F971F029640E163
:1029500050E0461B570B800F911FBF010E94382685
:10296000F701808190E027E230E0829FF001839FB1
:10297000F00D929FF00D1124E00FF11F81E0828B8A
:102980001F910F91FF90EF900895660F660F0E94C0
:1029900092140895EF92FF920F931F938C01FA0106
:1029A00070E090E5E92EF12CE00EF11ED7018C913C
:1029B00027E2829FC0011124860F971F029640E1F3
:1029C00050E0461B570B800F911FBF010E941E262F
:1029D000F701808190E027E230E0829FF001839F41
:1029E000F00D929FF00D1124E00FF11F81E0828B1A
:1029F0001F910F91FF90EF900895AB0160E00E944E
:102A0000CA140895EF92FF920F931F938C01FA015D
:102A100070E020E5E22EF12CE80EF91ED7018C9132
:102A200027E2829FC0011124860F971F029640E182
:102A300050E0461B570B800F911FBF010E940F26CD
:102A4000F701808190E027E230E0829FF001839FD0
:102A5000F00D929FF00D1124E00FF11F81E0828BA9
:102A60001F910F91FF90EF900895660F660F0E94DF
:102A700002150895CF92DF92EF92FF920F931F936A
:102A80006C01DC01A05BBF4F8C9190E037E2E32E3C
:102A9000F12C8E9DF0018F9DF00D9E9DF00D112467
:102AA000EC0DFD1D81E084A383A38C9190E0019641
:102AB0008E9DF0018F9DF00D9E9DF00D1124EC0D6B
:102AC000FD1D718360830C9110E00E9448260E9DCD
:102AD000F0010F9DF00D1E9DF00D1124EC0DFD1D5C
:102AE00096A385A31F910F91FF90EF90DF90CF9059
:102AF0000895EF92FF920F931F938C01FA017901D1
:102B000070E0005B1F4FD8018C910055104027E208
:102B1000829FC0011124860F971F439640E150E029
:102B2000461B570B800F911FBF010E941E26C80134
:102B3000B7010E943A151F910F91FF90EF900895F1
:102B4000FB019A0160E0AF010E9479150895AF92F0
:102B5000BF92CF92DF92EF92FF920F931F938C015F
:102B60005A01690150E5E52EF12CE80EF91EF70136
:102B70001082A9010E94A01581E0F7018083C8019D
:102B8000B501A6010E94A0151F910F91FF90EF9033
:102B9000DF90CF90BF90AF900895662319F0613019
:102BA00031F403C00E94F41808950E94FF1808959C
:102BB0007F928F929F92AF92BF92CF92DF92EF92CD
:102BC000FF920F931F93CF93DF937C018DE690E0EC
:102BD000E80EF91EF701A081B18183E99FEFE80EAD
:102BE000F91E109791F0ED91FC9111970280F381FD
:102BF000E02DCD010995EC01009739F0E881F981CC
:102C00000480F581E02D09951F8A87010E5E1F4F14
:102C1000CC24DD2487E2882E912CB0E2AB2E7724E1
:102C20007394BC2CF80182898823B9F10E9448264C
:102C3000BC01F801838994890E945126F8012589F5
:102C400036892817390710F47082128AF8018189B1
:102C5000882319F1C89CE001C99CD00DD89CD00DE7
:102C600011246396CE0DDF1DFE0120E030E080814F
:102C7000882309F4A0822F5F3F4F31962031310520
:102C8000B1F78FE699E46B2D0E94CD158FE699E49C
:102C9000BE010E94D618F801118AF80180818823AC
:102CA00031F18289882319F5C89CE001C99CD00DB7
:102CB000D89CD00D11242296CE0DDF1DFE0120E000
:102CC00030E08081882309F4A0822F5F3F4F319646
:102CD00020313105B1F78FE699E46B2D0E94CD15B7
:102CE0008FE699E4BE010E94D618F801108208947C
:102CF000C11CD11C095D1F4FF2E0CF16D10409F0B1
:102D000090CFE2EFF7E480E2819398E4E230F907B4
:102D1000D9F781E085A7779680E2819398E4E9323C
:102D2000F907D9F7DF91CF911F910F91FF90EF90A5
:102D3000DF90CF90BF90AF909F908F907F9008953D
:102D40004F925F926F927F928F929F92AF92BF92BB
:102D5000CF92DF92EF92FF920F931F93DF93CF9367
:102D600000D0CDB7DEB77C016BE5A62EB12CA80E46
:102D7000B91ECC24DD245BE6652E712C680E791E0D
:102D80002EC0D5010D911C910115110509F10E946C
:102D900048264C01F80184819581B4010E94512696
:102DA000D80112962D913C9113972817390720F0DE
:102DB00016968C91882361F0D801ED91FC910190D9
:102DC000F081E02DC8010995F80195828482168270
:102DD0000894C11CD11C82E090E0A80EB91ED3015A
:102DE0008D919C91C816D90664F243C02FB7F89410
:102DF0009091B4478091B5472FBF9817A1F060918B
:102E0000B44770E0660F771F6A54784BC50142E003
:102E100050E00E9404268091B44790E001968770AC
:102E200090708093B447620100E010E00DC0D601BD
:102E3000ED91FC91309711F0C50109950F5F1F4F7F
:102E4000E2E0F0E0CE0EDF1ED3018D919C910817D9
:102E500019076CF3F401A081B1811097E9F0ED91AD
:102E6000FC9111970190F081E02DCD01B5010995FC
:102E700013C05E010894A11CB11C31E5432E512CF6
:102E80004E0C5F1C29E5622E712C6E0C7F1C9DE69A
:102E9000892E912C8E0C9F1C2FB7F8949091B447DB
:102EA0008091B5472FBF981709F0A0CF8DE690E02D
:102EB000E80EF91EF701A081B18183E99FEFE80ECA
:102EC000F91E1097D1F0ED91FC9111970280F381DA
:102ED000E02DCD0109958C01009779F0DC01ED9191
:102EE000FC910190F081E02D0995D801ED91FC91C4
:102EF0000280F381E02DC8010995EDE6F0E0EE0EC9
:102F0000FF1EF701A081B18183E99FEFE80EF91E52
:102F1000109741F0ED91FC9111970284F385E02D1B
:102F2000CD0109950E941D02C7010E94D815ADE68A
:102F3000B0E0EA0EFB1EF701A081B181109789F085
:102F4000ED91FC9111970280F381E02DCD0109955F
:102F5000DC01009731F0ED91FC910680F781E02DC6
:102F600009950F900F90CF91DF911F910F91FF90D6
:102F7000EF90DF90CF90BF90AF909F908F907F9019
:102F80006F905F904F900895EF92FF920F931F9371
:102F9000DF93CF9300D0CDB7DEB78C017B01DC018E
:102FA000ED91FC910280F381E02D0995E816F90678
:102FB00009F455C0F701118F008F828D882361F4C9
:102FC0000190F081E02D0088F189E02DC70109957D
:102FD00081E0D7015A968C93C7010E94841CD701C7
:102FE000ED91FC910284F385E02DC7010995F8016C
:102FF00093818281891720F492818381985F06C032
:10300000D80112969C91129713968C91981B973029
:1030100039F4F801838190E0019687709070838382
:10302000D80112962C91129713968C91FA82E9820C
:10303000820F90E0877090700296880F991F800F22
:10304000911FBE016F5F7F4F42E050E00E94042657
:10305000F801828190E001968770907082830F90D2
:103060000F90CF91DF911F910F91FF90EF900895F6
:10307000FC01E359FF4F0190F081E02D309731F0D2
:10308000138283818283CF010E94C41708950F9316
:103090001F93CF93DF93EC018B01C359DF4FA881BE
:1030A000B981CD56D040109741F0ED91FC91119728
:1030B0000088F189E02DCD010995C359DF4F1983AF
:1030C0000883CD56D0400115110541F0D801ED918E
:1030D000FC910684F785E02DC8010995CE010E9478
:1030E000FE13892B29F0CE010E94FE130E94841C3E
:1030F000DF91CF911F910F910895FC0187E093E03C
:1031000091838083E75AFF4F84E090E0918380832E
:10311000389711921192119211921192119211827B
:103120001082749688E090E091838083EB56F040A3
:10313000DF01A55ABF4F80E090E01D921D920196DD
:1031400088309105D1F7E05BFF4F1082E055F040E9
:10315000DF0180E090E212969C93129799969C93DF
:1031600099978F5F11968031B1F7128A11AECF0116
:1031700067EC77E40E94471808951092C9471092AF
:10318000CA4784E092E09093C8478093C74789E597
:1031900091E09093DC478093DB471092DD471092DB
:1031A000DE478FED97E40E947D180895EF92FF921D
:1031B0001F93CF93DF937C01EB0110E068816623BE
:1031C00069F0103159F01F5FD701ED91FC91068035
:1031D000F781E02DC70109952196F0CFDF91CF91BE
:1031E0001F91FF90EF900895FC01A081B18114968A
:1031F0002D913C91159760E8F90109950895FC011E
:10320000A081B18114962D913C91159760ECF90144
:1032100009950895DC01ED91FC911197662329F041
:103220000480F581E02D6FE004C00480F581E02D7D
:103230006CE009950895DC01ED91FC916295660FB3
:10324000660F607C640F60680480F581E02D09954D
:103250000895BF92CF92DF92EF92FF920F931F9348
:10326000DF93CF9300D00F92CDB7DEB78C01DC0196
:1032700013969C91903108F06BC067FD69C047FDC3
:1032800067C0FE01319683E0DF011D928A95E9F760
:10329000906B99836A834B83FF248EE9C82ED12CCF
:1032A000C00ED11EBE2EEF2E43C04F2D50E0FA01AE
:1032B000EE0FFF1FE40FF51FEE0FFF1FE00FF11FD2
:1032C000EE58FF4F20813181E257F040DF01A059D5
:1032D000BF4F20FF14C0E259FF4FC9019595879554
:1032E0000190F081E02DE80FF91F0190F081E02DB1
:1032F0008D919C91E80FF91FA081B18103C00D90C1
:10330000BC91A02DFA01EE0FFF1FE40FF51FEE0F89
:10331000FF1FE00FF11FE259FF4F35952795808180
:103320009181820F931F6B2D7E2DFD010995F394E2
:10333000F6018081F81608F4B8CFD801ED91FC9120
:103340000088F189E02DC80169814A812B810995A6
:103350000F900F900F90CF91DF911F910F91FF90E1
:10336000EF90DF90CF90BF9008950895089508954D
:10337000AF92BF92DF92EF92FF920F931F93CF9382
:10338000DF93FC01DB0140E050E001E010E0BC0114
:10339000615C7F4FDD24D39491E4A92EB12CAE0E55
:1033A000BF1EEE24EA94FE2C8C9180FF18C011966B
:1033B0008C91119790E08417950789F4C801042E29
:1033C00002C0880F991F0A94E2F7EB012881398126
:1033D00082239323892B19F056AF45AFD3AE8C913E
:1033E00081FF18C011968C91119790E08417950772
:1033F00089F4C801042E02C0880F991F0A94E2F7CD
:10340000E5012881398182239323892B19F0F6AEB7
:10341000E5AED3AE4F5F5F4F4830510529F681E0EE
:10342000DF91CF911F910F91FF90EF90DF90BF90B0
:10343000AF900895CF93DF93EC018F89882389F0B3
:1034400010922F486B968FED97E4BE010E94FD14F9
:1034500081E080932F4860968FED97E4BE010E9433
:10346000FD14DF91CF910895CF93DF93EC018F8905
:10347000882311F041E008C0C75BDF4F8881C95441
:10348000D0408823F9F040E081E799E460E00E94B1
:103490002919C75BDF4F81E799E461E048810E9409
:1034A000291910922F48A6978FED97E4BE010E942C
:1034B000FD1481E080932F4860968FED97E4BE0164
:1034C0000E94FD14DF91CF9108950F931F93CF9326
:1034D000DF93EC018A0189E393E099838883198E55
:1034E000188E1F8A6115710539F0CE01029641E1EF
:1034F00050E00E940F2601C01A820115110541F00B
:10350000CE014396B80144E050E00E940F2601C06E
:103510001B8A1A8EDF91CF911F910F910895AF9260
:10352000BF92CF92DF92EF92FF920F931F930EE420
:1035300018E4C80160E070E040E050E00E94651AC5
:103540008DE093E090934F4880934E4810928948C5
:10355000F80116AE15AE109269481092794881E9CB
:1035600098E460E070E040E050E00E94651A10923C
:10357000AD481092AC481092AF481092AE481092ED
:10358000B1481092B0481092B3481092B24883E20A
:1035900093E090939248809391484BEDA42E48E499
:1035A000B42EC5010E946D133FEEC32E38E4D32E16
:1035B000C6010E946D1323E0E22E29E4F22EC7011A
:1035C0000E946D1307E119E4C8010E946D13109267
:1035D000D5481092D7481092D6481092B448B0926D
:1035E000AD48A092AC48D092AF48C092AE48F0929D
:1035F000B148E092B0481093B3480093B2481F918D
:103600000F91FF90EF90DF90CF90BF90AF90089513
:10361000AF92BF92CF92DF92EF92FF920F931F93E0
:10362000CF93DF937C0177FF03C060E070E005C0BB
:103630006D30710514F06CE070E08701095B1F4F7D
:10364000D8016D937C93C0E0D0E054E1A52EB12C5D
:103650006801CA9DC001CB9D900DDA9D900D11248B
:10366000865B9F4FF701EC0FFD1FD6012D913C911A
:10367000E20FF31F8E0D9F1D63A90E942B1221964E
:10368000C430D10531F78FE699E461E0F80140815B
:103690000E941B19DF91CF911F910F91FF90EF9026
:1036A000DF90CF90BF90AF9008950F931F93CF936B
:1036B000DF93EC018B01FB01808180FF0EC08181D3
:1036C000853059F4C95BDF4F68817981C754D04098
:1036D00064507040CE010E94081BF801808180FF79
:1036E0000EC08181863059F4C95BDF4F68817981D2
:1036F000C754D0406C5F7F4FCE010E94081BF80179
:10370000808180FF0BC08181843041F4CC5BDF4F2E
:1037100081E0899319821882C554D040F8018081D4
:1037200080FF0BC08181873041F4CC5BDF4F81E0AB
:10373000899381E090E09983888381E0DF91CF9144
:103740001F910F9108950F931F930FE619E4FC0149
:10375000E95BFF4FC80161E040810E941B19C8016D
:1037600060E00E940A1980E49CE90197F1F71F913B
:103770000F910895EF92FF920F931F938C0160E0D9
:1037800070E00E94081B6FE6E62E69E4F62EC70182
:1037900061E00E940A19095B1F4FC70161E0F8014F
:1037A00040810E941B191F910F91FF90EF90089587
:1037B0000F931F93CF93DF93EC010E946B1C8E013C
:1037C000075B1F4FF8018081882379F08FE699E429
:1037D00061E00E940A19C95BDF4F8FE699E461E05E
:1037E00048810E941B19F8011082DF91CF911F912F
:1037F0000F9108953F924F925F926F927F928F92B6
:103800009F92AF92BF92CF92DF92EF92FF920F936F
:103810001F93CF93DF936C01AAE4AA2EB12CA80EBC
:10382000B91EEE24FF24F4E14F2E512CE7E46E2E56
:10383000712C680E791E79E4872E912C880E991EC2
:1038400033243394E49CE001E59CD00DF49CD00D2E
:103850001124C65BDF4FCC0DDD1DD501ED91FC9130
:103860000084F185E02DCE0109958823A9F081E738
:1038700099E462E04E2D0E942919F3010081118123
:103880000E0D1F1DCE010E9418120C0D1D1DD8011A
:10389000D3968C93F40130820894E11CF11C84E1EE
:1038A00090E0A80EB91E94E0E916F10459F6DF91F4
:1038B000CF911F910F91FF90EF90DF90CF90BF902D
:1038C000AF909F908F907F906F905F904F903F90C0
:1038D0000895089508951F93CF93DF93EC0110E0AE
:1038E000AB8DBC8D109741F0ED91FC911197068046
:1038F000F781E02DCD0109951F5F2296143081F7E5
:10390000DF91CF911F910895DF92EF92FF920F9375
:103910001F938C0110922F482FEDE22E27E4F22EF8
:10392000C7010E946414DD24D394D0922F48C701AC
:103930000E946414F801D78A1F910F91FF90EF90B5
:10394000DF9008951F93CF93DF9310922F48EC01DF
:1039500010E0AB8DBC8D109779F0ED91FC91119733
:103960000190F081E02DCD010995AC018FED97E438
:10397000612F0E94351507C08FED97E4612F49E94B
:1039800050E00E94C5141F5F2296143011F7DF919A
:10399000CF911F910895CF92DF92EF92FF920F93F4
:1039A0001F93CF93DF937C01DC0157968C91882382
:1039B00019F0C7010E94A21C81E080932F48870163
:1039C000C0E0D0E0DC2ECD2EF801A38DB48D109791
:1039D00039F1ED91FC9111970084F185E02DCD0135
:1039E0000995882369F4D70157968C91882341F46F
:1039F000D8015B96ED91FC915C978785882381F0D7
:103A0000D8015B96ED91FC915C97A081B1815096B5
:103A10002D913C915197CF016D2D7C2DF901099588
:103A200021960E5F1F4FC430D10561F6DF91CF9113
:103A30001F910F91FF90EF90DF90CF9008951F930B
:103A4000CF93DF93EC0110E08B8D9C8D009711F0EC
:103A50000E94E3111F5F22961430B1F7DF91CF91DE
:103A60001F910895CF92DF92EF92FF920F931F93D1
:103A7000DF93CF93CDB7DEB728970FB6F894DEBFAC
:103A80000FBECDBFE82ED92EFFB6F8948E010F5F82
:103A90001F4FC8016FE379E448E050E00E9404261C
:103AA00089E399E40E940520FFBE2E2D3D2DC9011A
:103AB0007C0179E0C72ED12CCC0EDD1EF701A38D41
:103AC000B48D109749F0ED91FC9111970480F58128
:103AD000E02DCD01B801099582E090E0E80EF91ED5
:103AE0000E5F1F4F0C151D0549F728960FB6F89469
:103AF000DEBF0FBECDBFCF91DF911F910F91FF9021
:103B0000EF90DF90CF900895109232491092314992
:103B10008DE892E090932D4980932C498FEF80930C
:103B20002E4910922F49109230498BE299E460E0BF
:103B30000E940B1008950F93FC01262F838590E0BF
:103B40006281820F911D70E00E94A026082F2381C0
:103B500034814581568167817085818592850E9477
:103B60008B00822F81700F910895EF92FF920F9337
:103B70001F93CF93DF93EC01E62E2B874A831B82A2
:103B80001C821D821E821F82188619861A86662351
:103B900049F1142FFF2423C02F2D30E090E001972E
:103BA000281739079CF42B813C814D815E816F8100
:103BB000788589859A8501E00E940A012B833C83E0
:103BC0004D835E836F83788789879A87EA811E1782
:103BD00020F08B8181608B831E1B1E0DF3948A81E4
:103BE000F816D0F2DF91CF911F910F91FF90EF90D7
:103BF0000895FC01138214821582168217821086A2
:103C000011861286428323878FE493E09183808319
:103C1000CF010E94B51D0895BF92CF92DF92EF921F
:103C2000FF920F931F93DF93CF9300D00F92CDB7E6
:103C3000DEB78C01603108F072C047FD70C027FD0F
:103C40006EC0FE01319683E0DF011D928A95E9F78F
:103C5000606869834A832B83FF24ADE6CA2ED12C8A
:103C6000C00ED11EBE2EEF2E4AC04F2D50E0CA010D
:103C7000880F991F840F951FFC01EE0FFF1FE00FA7
:103C8000F11FEF5BFF4F20813181E154F040DC01F7
:103C9000119620FF18C0C9019595879505ACF6AD22
:103CA000E02DE80FF91FAA0FBB1FA00FB11F019055
:103CB000F081E02DDD968D919C91DE97E80FF91F44
:103CC000A081B18108C0AA0FBB1FA00FB11FDD9654
:103CD0000D90BC91A02DFA01EE0FFF1FE40FF51F10
:103CE000EE0FFF1FE00FF11F3595279585AD96ADBF
:103CF000820F931F6B2D7E2DFD010995F394F60124
:103D00008081F81608F4B1CFD801ED91FC910088BC
:103D1000F189E02DC80169814A812B8109950F90B5
:103D20000F900F90CF91DF911F910F91FF90EF9027
:103D3000DF90CF90BF9008959C0150910747583075
:103D400090F5E7EDF6E440E010C0808191818217A4
:103D5000930749F482819381895E9E4121F4848195
:103D60009581892B01F14F5F3696451770F3852FAA
:103D700090E0DC01AA0FBB1FA80FB91FAA0FBB1F41
:103D8000FD01E05CF94BE956FF4F31832083349607
:103D900011821082A752B94B89EE9EE18D939C93BC
:103DA0005F5F509307470895CF93DF93EC0148A9D5
:103DB00047FD08C081E799E469A920E00E940C1E34
:103DC0008FEF88AB8AA991E089278AABDF91CF91E9
:103DD0000895CF92DF92EF92FF920F931F93DF939C
:103DE000CF9300D00F92CDB7DEB78C012091504613
:103DF000309151464091524650915346622F0E9455
:103E00009B1D882309F48FC0D8019F968C91F801DF
:103E1000E80FF11DE684F80184A9E80E40A947FDEA
:103E20000AC081E799E461A920E00E940C1E8FEF8F
:103E3000D801D0968C93E7FC69C0F80182A9882349
:103E400009F064C091A9903108F05EC0FE0131967E
:103E500083E0DF011D928A95E9F790699983EA82F0
:103E600084E68B83FF246F013DC04F2D50E0DA01C3
:103E7000AA0FBB1FA40FB51FAA0FBB1FAF58B64B8D
:103E800050962D913C91519720FF15C0C9019595F1
:103E900087951C96ED91FC911D97E80FF91F0190F5
:103EA000F081E02D1E968D919C911F97E80FF91FD0
:103EB000A081B18104C01E960D90BC91A02DFA0185
:103EC000EE0FFF1FE40FF51FEE0FFF1FEF58F64B2D
:103ED0003595279584859585820F931FB601FD0141
:103EE0000995F3948091AD49F81608F4BECFE0919E
:103EF0007149F09172490088F189E02D81E799E4D8
:103F000069814A812B810995F801E0AAD8019F9621
:103F10008C919F9790E09E966C91019670E00E9424
:103F2000A026F80187A70F900F900F90CF91DF91F7
:103F30001F910F91FF90EF90DF90CF9008951F9306
:103F4000CF93DF93EC0110E00AC08C859D856BA9AF
:103F50000E947811FE01E10FF11D86871F5F8EA57B
:103F6000181798F3DF91CF911F910895FC0166A770
:103F70000E949F1F08950F931F93CF93DF93EC012F
:103F80008B0163E048E020E00E94F91D0115110556
:103F900019F01D870C8706C08091D4019091D5013E
:103FA0009D878C871BAA1FA684E08EA7CE010E9446
:103FB0009F1F19AA1AAA1BAADF91CF911F910F91D7
:103FC0000895109234491092334910923649109254
:103FD00035491092374908959698969A20E030E036
:103FE00040E0220F331F80B390E065E096958795FF
:103FF0006A95E1F781709070282B392B9798979AE2
:104000004F5F403171F7C90108954FB7F894FC0133
:1040100080E0178216828F5F32968430D1F74FBFCF
:104020000895AF92BF92CF92DF92EF92FF920F93DB
:104030001F93CF93DF93EC01D62EC72E8C0187E41C
:10404000E82E89E4F82E862F972F9C0160E070E01F
:10405000A880B980C9018A259B2583709070892B1F
:1040600009F460C0D7018C9180FF05C0FB01339635
:10407000EE0FFF1F04C0FB01EE0FFF1F3796EC0F82
:10408000FD1FD80112968C91482F50E0437050705C
:104090004115510559F4C50183709070019731F4B1
:1040A000C901837090700397B9F40DC04330510576
:1040B00081F4C501837090700297D9F4C9018370AF
:1040C0009070892BC9F48081803444F580818F5FA2
:1040D00024C04115510569F4B3E0AB22BB2482E052
:1040E000A816B104D9F4C901837090700397B1F494
:1040F0000FC04330510591F493E0A922BB24A1E005
:10410000AA16B10459F4C90183709070892B31F457
:104110008081813C1CF08081815080838881837004
:10412000F8018283888199819695879596958795E0
:10413000998388836F5F7F4F0F5F1F4F85E090E00B
:10414000E80EF91E6430710529F0369527953695ED
:1041500027957ECFD882C982DF91CF911F910F9191
:10416000FF90EF90DF90CF90BF90AF900895E7E47D
:10417000F9E49081892F877C808380FF03C082606F
:10418000808302C0957C9083359689E4EF36F807EA
:1041900081F70895E7E4F9E470E0808160FF02C0F0
:1041A000816001C08E7F8083359689E4EF36F80701
:1041B00019F075956795F0CF089581B3806C81BB38
:1041C0008D989598979A969A8FB7F894EFE3F9E4BB
:1041D00011821082329699E4E734F907C9F78FBF4C
:1041E00010923B4910923C4910923D4910923E4931
:1041F00010923A491092394987E499E40E94B72015
:1042000008951E9A1E980895DC01E2E6F0E0808190
:104210006F70807F862B8083ED91FC9111970190C8
:10422000F081E02DCD0109950895FF920F931F9322
:104230008C01F62EDC01ED91FC9170E084E0759527
:1042400067958A95E1F70280F381E02DC801099511
:10425000D801ED91FC91BFE0FB220280F381E02DBB
:10426000C8016F2D09951F910F91FF900895DC01F2
:104270001A98ED91FC910084F185E02D099588EC68
:1042800090E00197F1F70895DC011A9AED91FC9105
:104290000084F185E02D099588EC90E00197F1F715
:1042A00008950F931F938C01DC01ED91FC91028026
:1042B000F381E02D63E00995D801ED91FC91028036
:1042C000F381E02DC80162E0099580E293E0019757
:1042D000F1F7D801ED91FC910480F581E02DC80142
:1042E00068E20995D801ED91FC910480F581E02DFB
:1042F000C8016CE00995D801ED91FC910480F5812D
:10430000E02DC80164E00995D801ED91FC9104808D
:10431000F581E02DC80161E00995D801ED91FC918E
:104320000480F581E02DC80162E0099580E29EE4F9
:104330000197F1F71F910F910895DC0185E593E056
:1043400011969C938E93E1E6F0E080818F608083EC
:104350001092620082B1846482B9CD010E94512121
:1043600008958FE699E40E949D210895EF92FF92AF
:104370000F931F93CF93DF938C017B01EA010CC055
:10438000D7016D917D01D801ED91FC910480F581FB
:10439000E02DC80109952197209791F7DF91CF91E2
:1043A0001F910F91FF90EF9008950895DC01ED911A
:1043B000FC910480F581E02D09950895EF92FF921C
:1043C0000F931F938C01F42EE22E0E94430ED8010E
:1043D000ED91FC910480F581E02DC8016F2D0995C8
:1043E000D801ED91FC910480F581E02DC8016E2D7E
:1043F00009951F910F91FF90EF900895FF920F93F1
:104400001F938C01F42E0E94430ED801ED91FC9174
:104410000480F581E02DC8016F2D09951F910F9142
:10442000FF9008950E94430E0895DF92EF92FF924D
:104430000F931F938C017B01D42E60EF0E94430EDB
:10444000D801ED91FC910280F381E02DC801B70104
:104450004D2D50E00995C80167EF0E94430E1F9152
:104460000F91FF90EF90DF900895EF92FF920F93DE
:104470001F937A018B01DC01AC55B74FFC01EA5563
:10448000F74F4FB7F8942D913C911197808191810E
:104490004FBF28173907A9F760E472E48FE090E076
:1044A000A80197010E94B326C901DA010197A10969
:1044B000B109292F3A2F4B2F55272093900089B906
:1044C0001F910F91FF90EF900895FC01128242E13D
:1044D0005AE760E070E00E94352286E08093950004
:1044E00088E98AB9569A0895FC0114AEE359FF4F42
:1044F0001082F1961082EE59F040148212821382DB
:10450000138612861186168215828BE793E09183BB
:104510008083E156FF4F1182108232961182108201
:10452000EE5FF74F11921182108232961182108243
:10453000EE5FFB4F1082E85AFC40CF010E946522DB
:1045400008955D9BFECF6CB90895CF93DF93FC0176
:10455000EC01CC55D74FDC01AA55B74F75E34FB7E7
:10456000F894288139818D919C9111974FBF28171C
:10457000390709F045C05D9B43C06CB951C08FB786
:104580007894972F9A95F1F78FBF8FB7F8942D9164
:104590003C911197488159818FBF2F5F3F4F3370F6
:1045A00024173507E1F6EBCF8FB7F894DF01AA5552
:1045B000B74F2D913C911197EC55F74F40815181A8
:1045C000E45AF8408FBF2F5F3F4F337024173507F1
:1045D00031F4E855F34F80818F5F808321C08D9146
:1045E0009C911197E80FF91FE855F74F60838D9163
:1045F0009C9111970196937011969C938E9310C085
:104600008FB7F8942D913C911197488159818FBFB4
:104610002F5F3F4F33702417350709F4B6CFC4CF4F
:10462000DF91CF910895FC014FB7F894E156FF4F09
:1046300021913191808191814FBF40E02817390746
:1046400009F041E0842F0895FC014FB7F894DC0194
:10465000A156BF4F2D913C911197EF55FF4F80818F
:104660009181E15AF0404FBF2817390711F420E03B
:1046700010C08D919C911197E80FF91FED55FF4FD8
:1046800020818D919C9111970196977011969C9322
:104690008E93822F08951F920F920FB60F921124BE
:1046A0002F933F934F938F939F93EF93FF934FB726
:1046B000F894209115523091165280911752909192
:1046C00018524FBF28173907B9F14FB7F894209106
:1046D00015523091165280911752909118524FBF37
:1046E0002817390711F4E0E007C0E0911552F09166
:1046F0001652E75EFD4AE081ECB94FB7F89420917D
:1047000015523091165280911752909118524FBF06
:104710002817390789F0E0911552F0911652E75E9B
:10472000FD4AE08180911552909116520196937046
:104730009093165280931552FF91EF919F918F9114
:104740004F913F912F910F900FBE0F901F90189592
:10475000FC0114AEE359FF4F1082F1961082EE591E
:10476000F0401482138213861286118616821582F7
:1047700083E693E091838083E156FF4F118210829C
:10478000329611821082EE5FF74F1082E35AF840A2
:104790001282109298008FE18093990086E08093B6
:1047A0009D0080E980939A000895FC011282109286
:1047B00098008FE18093990086E080939D0080E9C6
:1047C00080939A000895FC014FB7F894E156FF4F8B
:1047D00021913191808191814FBF40E028173907A5
:1047E00009F041E0842F0895FC014FB7F894DC01F3
:1047F000A156BF4F2D913C911197EF55FF4F8081EE
:104800009181E15AF0404FBF2817390711F420E099
:1048100010C08D919C911197E80FF91FED55FF4F36
:1048200020818D919C9111970196977011969C9380
:104830008E93822F089581E799E40E9474228AE181
:1048400096E50E94A82308951F920F920FB60F922B
:1048500011242F933F934F935F936F937F938F9385
:104860009F93AF93BF93EF93FF9360919C00683F3A
:10487000D8F080917346909174460397A9F46A3FEB
:1048800049F06C3F61F0683F99F480E496E40E943F
:10489000BD0A36C080E496E40E94560731C080E429
:1048A00096E40E9471072CC080911D46882341F137
:1048B0008FB7F8942091BB563091BC564091B956B1
:1048C0005091BA568FBF2F5F3F4F3770241735076F
:1048D00031F48091BD5E8F5F8093BD5E11C0E09129
:1048E000BB56F091BC56E354F94A60838091BB56A5
:1048F0009091BC56019697709093BC568093BB568E
:10490000FF91EF91BF91AF919F918F917F916F91A7
:104910005F914F913F912F910F900FBE0F901F907D
:1049200018951F920F920FB60F9211242F933F9359
:104930004F935F936F937F938F939F93AF93BF93A7
:10494000EF93FF936CB1683F08F450C080917346B9
:1049500090917446029709F049C06A3F79F06B3F25
:1049600018F4683FD1F405C06B3F91F06C3FA9F497
:104970000AC080E496E40E94BD0A64C080E496E424
:104980000E9456075FC080E496E40E9471075AC0F7
:1049900080E496E40E94830755C08FB7F894209175
:1049A000124A3091134A4091104A5091114A8FBFD8
:1049B0002F5F3F4F37702417350731F48091145221
:1049C0008F5F809314523EC0E091124AF091134AD7
:1049D000EC5EF54B60838091124A9091134A0196E8
:1049E00097709093134A8093124A2CC08FB7F89413
:1049F0002091124A3091134A4091104A5091114A25
:104A00008FBF2F5F3F4F37702417350731F48091E8
:104A100014528F5F8093145211C0E091124AF091AA
:104A2000134AEC5EF54B60838091124A9091134AD1
:104A3000019697709093134A8093124A8091145272
:104A400081111D98FF91EF91BF91AF919F918F912F
:104A50007F916F915F914F913F912F910F900FBE7A
:104A60000F901F901895089508950895089508953A
:104A70000895089580E00895CB010E94332508959C
:104A8000CB010E9434250895CB010E94352508955D
:104A9000CB010E9436250895CB010E943725089549
:104AA000CB010E9438250895CB01BA010E94392517
:104AB0000895A0E3B8E4E0E0F0E08D919C911197B7
:104AC000009719F08A53954249F4EE0FFF1FE05DFD
:104AD000F74B8AE395E2918380830895319612968D
:104AE000E430F10551F7089544E555E23091074768
:104AF0003830C0F5E7EDF6E420E015C08081918103
:104B00008E5B9E4571F4828193818455954249F470
:104B100084819581009731F14115510511F480FF91
:104B200021C02F5F3696231748F3832F90E0FC01B6
:104B3000EE0FFF1FE80FF91FEE0FFF1FDF01A05C54
:104B4000B94BA956BF4F8EEB9EE511969C938E9361
:104B500014961D921C92E752F94B518340833F5F9C
:104B6000309307470895EF92FF920F931F935EEBE8
:104B7000E52E5EE5F52E20E030E040E050E02CE34D
:104B800035E205E711E4C801B7010E944F0F20E0AC
:104B900030E040E050E020E435E2C801C197B701C1
:104BA0000E944F0F20E030E040E050E024E435E286
:104BB00087ED91E4B7010E944F0F20E030E040E024
:104BC00050E028E435E207EF14E4C801B7010E9481
:104BD0004F0F20E030E040E050E02CE435E2C80127
:104BE000C197B7010E944F0F20E030E040E050E055
:104BF00020E535E289E595E4B7010E944F0F1F914A
:104C00000F91FF90EF900895DC01FB0104C08191AA
:104C10008D934150504041155105C9F70895DC016D
:104C2000FB0104C08D933196415050404115510510
:104C300021F080818823B1F71C920895DC01FB01EB
:104C400004C08D933196415050404115510541F0BB
:104C500080818823B1F704C0415050408D9301C03A
:104C600080E242305105C0F7452B09F01C920895AF
:104C7000DC01FB0109C08491882311F41C92089582
:104C80008D9331964150504041155105A1F708953B
:104C90008FB7F8942091BF5E3091C05E8FBFC9017D
:104CA0000895681B790BCB010895680F791F64176D
:104CB00075072CF0A901621773070CF4AB01CA0148
:104CC0000895629FD001739FF001829FE00DF11D56
:104CD000649FE00DF11D929FF00D839FF00D749F76
:104CE000F00D659FF00D9927729FB00DE11DF91F22
:104CF000639FB00DE11DF91FBD01CF01112408957F
:104D0000991B79E004C0991F961708F0961B881F1D
:104D10007A95C9F780950895AA1BBB1B51E107C07E
:104D2000AA1FBB1FA617B70710F0A61BB70B881F3B
:104D3000991F5A95A9F780959095BC01CD010895CA
:104D400097FB092E07260AD077FD04D0E5DF06D0B1
:104D500000201AF4709561957F4F0895F6F79095AD
:104D600081959F4F0895A1E21A2EAA1BBB1BFD013E
:104D70000DC0AA1FBB1FEE1FFF1FA217B307E4073A
:104D8000F50720F0A21BB30BE40BF50B661F771F92
:104D9000881F991F1A9469F7609570958095909572
:104DA0009B01AC01BD01CF01089597FB092E05269B
:104DB0000ED057FD04D0D7DF0AD0001C38F4509530
:104DC0004095309521953F4F4F4F5F4F0895F6F72F
:104DD00090958095709561957F4F8F4F9F4F089567
:104DE000EE0FFF1F0590F491E02D0994A0E0B0E0D4
:104DF000ECEFF6E20C947127EC01A880B980CA8030
:104E0000DB80A114B104C104D10441F484E2A82ED2
:104E100089EDB82E8BE5C82E87E0D82EC601B501E6
:104E20002DE133EF41E050E00E94D52627EA31E43E
:104E300040E050E00E9461267B018C01C601B50173
:104E40002DE133EF41E050E00E94D526CA01B901BF
:104E50002CEE34EF4FEF5FEF0E9461266E0D7F1D49
:104E6000801F911F97FF04C06150704080409048A0
:104E7000688379838A839B839B01AC015F77B90147
:104E8000CA01CDB7DEB7EAE00C948D270E94F62662
:104E900008958DE591E00E94F626089560935D01E6
:104EA00070935E0180935F019093600108950E946A
:104EB0005C27272F0C945D27262FE199FECF9FBBFF
:104EC0008EBB2DBB0FB6F894E29AE19A0FBE019605
:104ED00008952F923F924F925F926F927F928F929E
:104EE0009F92AF92BF92CF92DF92EF92FF920F9379
:104EF0001F93CF93DF93CDB7DEB7CA1BDB0B0FB683
:104F0000F894DEBF0FBECDBF09942A88398848883F
:104F10005F846E847D848C849B84AA84B984C884D5
:104F2000DF80EE80FD800C811B81AA81B981CE0FCC
:104F3000D11D0FB6F894DEBF0FBECDBFED010895B1
:044F4000F894FFCF13
:104F44004555434C4944004D5554454400554E4D38
:104F5400555445440050544300504C53004C454E66
:104F6400004F46460054524B0053434C004F4354A9
:104F74000042415300432000446200442000456243
:104F8400004520004620004762004720004162009F
:104F940041200042620042200044465400010000C7
:104FA40000350138013B013E014101440147014AFA
:104FB400014D015001530156010700020405070980
:104FC4000B0000000000070002030507080A0000A8
:104FD40000000005000204070900000000000000B2
:104FE4000600030506070A00000000000004000490
:104FF400070B0000000000000000040004070A0082
:1050040000000000000000040003070A0000000084
:105014000000000079018601A0019301AD01BA01ED
:10502400C70100000000E1012103CB0199024B02FA
:10503400080209020A020B020C020D0215021802F0
:1050440000000000E1012103CB01DE01DF010802C1
:1050540009020A020B020C020D02150218020000DA
:105064000000321D9E03CB1C6B1C1F1DC601C70113
:10507400C801CA0100000000321D4F03CB1C6B1C89
:105084001F1DC601C701C801CA01F200008001004A
:10509400900100A00100B00100C00200D00200E0B5
:1050A4000100F10200F20100F30200F60000000426
:1050B4000000000000BF0CC00CC10C350E00000045
:1050C400006F0EC00C800E720E00000000BF0CC0FA
:1050D4000C1F11C20C000000009C11E112AE12A9B9
:1050E40011D711A111A511C0115312000000009C89
:1050F40011E112AE12A911D711A111A511C0117E8F
:1051040012000000009C11E112AE12A911D711A1E6
:1051140011A511C0116612000000009C11E112E9F2
:1051240011A911D711A111A511C011661200000017
:10513400009C11E112AE12A911D711A111A511C041
:1051440011661200000000A016000000006A1CB5E1
:10515400191A1AB619B719C601C701B819CA010034
:10516400000000321DFA1B341AD81B1F1DBA1BA3E2
:105174001B551BCA01000000006A1CB519691CB646
:1051840019B719C601C701C801CA01000000009B74
:105194001D000000000121042137214421152100B4
:1051A400000000D523B621D521D621E323F4231210
:1051B40022FE21DE211522000000006522B621A571
:1051C40022A122132324231222FE21DE21152200F0
:00000001FF
