:10F000000C9446780C9463780C9463780C94637831
:10F010000C9463780C9463780C9463780C94637804
:10F020000C9463780C9463780C9463780C946378F4
:10F030000C9463780C9463780C9463780C946378E4
:10F040000C9463780C9463780C9463780C946378D4
:10F050000C9463780C9463780C9463780C946378C4
:10F060000C9463780C9463780C9463780C946378B4
:10F070000C9463780C9463780C9463780C946378A4
:10F080000C9463780C9463780C94637811241FBEFD
:10F09000CFEFD0E1DEBFCDBF11E0A0E0B1E0E0EA0C
:10F0A000F7EF02C005900D92A832B107D9F712E030
:10F0B000A8E2B1E001C01D92A639B107E1F70E94B4
:10F0C0005F7A0C94CE7B0C940078CF93DF9380E032
:10F0D00090E00E94A67B9C01E0E0F0E0C0E0D0E080
:10F0E00004C08491C80FD11D3196E217F307C8F30D
:10F0F00082E090E00E94A67B20E0DF73C817D9076A
:10F1000009F421E0822FDF91CF9108950E946A7B5C
:10F110008095881F8827881F08951F93CF93DF93BA
:10F120001FB70E941A7B80E091E064E00E940A7B96
:10F13000809130010E94F07AF89460912F017091D3
:10F14000300183E0FB0180936800E89580916800BE
:10F1500080FDFCCFC1E3D1E0AB01A1E0398120E02B
:10F16000888190E0822B932BFA010C01A093680018
:10F17000E89511244E5F5F4F2296F2E0C133DF071E
:10F1800069F785E0FB0180936800E895809168004D
:10F1900080FDFCCF81E180936800E8951FBF10924D
:10F1A0002E0110922D01DF91CF911F910895EF92C2
:10F1B000FF920F931F93CF93DF9380919502E82ED8
:10F1C000FF24E701219710E093E005C0EF5CFD4FBD
:10F1D000808118279F5FE92FF0E0EC17FD07B4F35B
:10F1E0000091350260912D0170912E01611571051C
:10F1F000F1F4E9E3F2E020E030E040E050E0A7E0A5
:10F20000220F331F441F551FAA95D1F7808190E02C
:10F21000A0E0B0E0282B392B4A2B5B2B319782E002
:10F22000E533F80761F73093300120932F01809187
:10F230002F01909130018050904F08F040C040E085
:10F2400030E020E087EF9FEFE80EF91E1CC0DC01E4
:10F25000AF5CBD4F87709070892B19F419962C9173
:10F260000FC0FB01EF5CFE4F822F879588278795A3
:10F2700019969C91892B80836F5F7F4F4F5F2695F6
:10F28000401730F43F5F832F90E08E159F05FCF20E
:10F2900070932E0160932D011F77CF5CDD4F888125
:10F2A000181769F4403459F480912D0190912E0182
:10F2B0008050914011F40E948D7881E001C080E07F
:10F2C000CDB7DEB7E6E00C94977B88EE93E020E9BB
:10F2D00031E0F9013197F1F70197D9F780912D01CC
:10F2E00090912E01892B11F00E948D780E946578F3
:10F2F0008823D9F00E94067B0E94FC7A0E941A7B28
:10F300000E94FC7A84E090E00E94A67B019731F095
:10F3100084E090E061E070E00E94AC7BE091280125
:10F32000F0912901099581E008950E941A7B85E0FA
:10F3300091E06BE00E940A7B80E008950F931F9399
:10F340009C018B0180E090E0B9010E94AC7B82E0DF
:10F3500090E0B8010E94AC7B84E090E061E070E056
:10F360000E94AC7B1F910F9108958091370290E02D
:10F37000A0E0B0E037E0880F991FAA1FBB1F3A95A5
:10F38000D1F72091360230E040E050E0822B932B01
:10F39000A42BB52B27E0880F991FAA1FBB1F2A9506
:10F3A000D1F72091350230E040E050E0822B932BE2
:10F3B000A42BB52B6091390270E07695762F6627E5
:10F3C000779567952091380230E0622B732B0E946D
:10F3D0009E7981E0089590919502943070F180912A
:10F3E00034028530A9F0843019F40E9465790BC08D
:10F3F000813019F40E94D77806C0833031F49930F7
:10F4000021F40E94B579882319F4E2E2F1E00CC0FE
:10F41000ECE1F1E080815D9BFECF8CB9319681E01B
:10F42000E232F807B9F7089580815D9BFECF8CB971
:10F43000319681E0E832F807B9F70895982F803FB8
:10F4400061F480912C01813011F40E94EB791092CB
:10F45000950281E080932C010895873F39F48091D3
:10F460002C01813029F40E94EB7902C087FF03C090
:10F4700010922C01089580912C018823F9F080913D
:10F480009502E82FF0E0EF5CFD4F9083982F9F5F8F
:10F4900090939502933070F080913102882341F46B
:10F4A00080913202833121F480913302813411F052
:10F4B00010922C01953610F010922C0108951F9394
:10F4C000F894A89528E10FB6F89421BD11BC0FBEA1
:10F4D0008FEF82B989E080938A0081E880938B0066
:10F4E00080EA90E0909387008093860083E085BF58
:10F4F000109290008FE189B986E0809395002AB937
:10F500000E94627B0E941E7B0E94067B0E94FC7A06
:10F510000E941A7B0E94FC7A0E94067B81E191E0A6
:10F520006AE00E940A7B84E090E00E94A67B01973B
:10F5300031F40E948678882311F40E946579ECE109
:10F54000F1E080815D9BFECF8CB9319681E0E232A3
:10F55000F807B9F710E00E948678882311F411E0CB
:10F5600004C0112311F00E9465795F9BF4CF5F9B6B
:10F57000FECF8CB10E941E7AEECF3FB7F894E2E640
:10F58000F0E09081282F22952F70907F292B2083E7
:10F590001E9A1E983FBF2FB7F894E2E6F0E09081E4
:10F5A0008F70907F982B90831E9A1E982FBF08957E
:10F5B0001A980E94BD7A88EC90E00197F1F70895BF
:10F5C0001A9A0E94BD7A88EC90E00197F1F70895AD
:10F5D0008A3010F4805D01C0895A0E94E07A089553
:10F5E0001F93182F82958F700E94E87A812F8F7059
:10F5F0000E94E87A1F9108951F9310E080E20E9414
:10F60000E07A1F5F1031D1F71F91089580E80E94C2
:10F61000D87A08951F93CF93DF93EC01162F04C07F
:10F6200089910E94E07A11501123D1F7DF91CF9197
:10F630001F91089580EC0E94D87A0895809161000E
:10F640008F60809361001092620082B1846482B9FD
:10F6500088EE93E020E931E0F9013197F1F7019765
:10F66000D9F79FB7F89480916200807F8360809380
:10F6700062001E9A1E989FBF9FB7F8948091620007
:10F68000807F8260809362001E9A1E989FBF80E2F6
:10F6900093E00197F1F788E20E94D87A85E38A9592
:10F6A000F1F78CE00E94D87A84E00E94D87A81E059
:10F6B0000E94D87A82E00E94D87A80E29EE4019784
:10F6C000F1F7089581B3806C81BB8D989598979AD6
:10F6D000969A08959698000000000000969A0000FF
:10F6E0000000000020E030E080B3220F90E045E011
:10F6F000969587954A95E1F78170282B9798000099
:10F7000000000000979A0000000000003F5F3830C2
:10F7100059F7822F08952A88398848885F846E8433
:10F720007D848C849B84AA84B984C884DF80EE8025
:10F73000FD800C811B81AA81B981CE0FD11D0FB62E
:10F74000F894DEBF0FBECDBFED010895A8E1B0E093
:10F7500042E050E00C94B37B0E94C17B272F0C94B5
:10F76000C27BDC01CB01FC01E199FECF06C0FFBBEF
:10F77000EEBBE09A31960DB20D9241505040B8F771
:10F780000895262FE199FECF9FBB8EBB2DBB0FB6F0
:10F79000F894E29AE19A0FBE01960895F894FFCF8B
:10F7A000424C4B200057524F4E4720434845434B55
:10F7B00000424F4F544C4F4144455200F00013411A
:08F7C00002F7F000134110F7FD
:040000030000F00009
:00000001FF
